:020000040800F2
:10000000800B0020B52D0008192C00081B2C0008BF
:100010001D2C00081F2C0008212C000800000000E7
:10002000000000000000000000000000352B000868
:10003000232C000800000000DD2A0008252C000801
:10004000D92D0008DD2D0008E12D0008E52D000860
:10005000E92D0008ED2D0008F12D0008F52D000810
:10006000F92D0008FD2D0008012E0008052E0008BE
:10007000092E00080D2E0008112E0008152E00086C
:10008000192E00081D2E0008212E0008252E00081C
:10009000292E00082D2E0008312E0008332C0008D0
:1000A000352E0008392E00083D2E0008412E00088C
:1000B000452E0008492E00084D2E0008512E00083C
:1000C000552E0008592E00085D2E0008612E0008EC
:1000D000652E0008692E00086D2E0008712E00089C
:1000E000532C0008752E0008792E00087D2E00087C
:1000F000812E0008852E0008892E00088D2E00080C
:10010000912E0008952E0008992E00089D2E0008BB
:10011000A12E0008A52E0008A92E0008AD2E00086B
:10012000B12E0008B52E0008B92E0008BD2E00081B
:10013000C12E0008C52E0008C92E0008CD2E0008CB
:10014000D12E0008D52E0008D92E0008DD2E00087B
:10015000E12E0008E52E0008E92E0008ED2E00082B
:10016000F12E0008F52E0008F92E0008FD2E0008DB
:10017000012F0008052F000800000000000000000B
:10018000092F00080D2F00082DE9FC47040019D0A5
:10019000DFF83C76DFF84456B868FE6800F00C08DB
:1001A0002078C10606F0030651D5B8F1000F04D03F
:1001B000B8F10C0F08BF012E2BD13868810703D589
:1001C000A069002800F02C81396808074EBF396803
:1001D00069680909206A01F0F001814206D200F045
:1001E000BBFA002808D100F0BDF907E000F0BAF929
:1001F000206A00F0B1FA002840F0128100F04DFAB8
:10020000BA6800F03FFA00F0FFFA010000F0F78052
:10021000A6E1A06990B1396841F00101396000F0B0
:100220000BFB81463868810700F1E78000F004FB92
:10023000A0EB09000328F5D3032091E138684008BA
:100240004000386000F0F8FA81463868810740F1D4
:10025000D68000F0F1FAA0EB09000328F5D3EBE714
:100260006068B0F5803F04D1386840F48030386071
:1002700011E0B0F5A02F386806D140F48020386036
:10028000396841F4803105E020F480303860396805
:1002900021F480213960606868B100F0CDFA8146B0
:1002A0003868810300F1BE8000F0C6FAA0EB0900B7
:1002B0006528F5D3C0E700F0BFFA814638688103AE
:1002C00040F1B08000F0B8FAA0EB09006528F5D342
:1002D000B2E700F0B1FA801B0328C0F0CA80ABE798
:1002E000E06880B1396841F48071396000F0A4FAA7
:1002F00006463868410500F1A78000F09DFA801B92
:100300000328F6D398E7386820F48070386000F04E
:1003100093FA06463868410540F19D8000F08CFA5A
:10032000801B0328F6D387E740084000686000F090
:1003300083FA06466868810740F19F8000F07CFAE6
:10034000801B0328F6D377E70528286806D140F0FC
:1003500004002860296841F0010105E040084000E0
:100360002860296821F004012960A06841F28939D8
:1003700068B100F061FA82462868810700F1B18017
:1003800000F05AFAA0EB0A004845F5D354E700F014
:1003900053FA82462868810740F1A38000F04CFAA6
:1003A000A0EB0A004845F5D346E700F045FA401BAC
:1003B0000328C0F0AA803FE700F03EFA001B0328A4
:1003C000C0F0C98038E7396811F0205F03D1F868C0
:1003D00080088000F860F968DFF804040140F960E3
:1003E00000F02AFA04463868810140F1B88000F034
:1003F00023FA001B0328F6D31EE700F0B3F8207899
:10040000C1070FD5B8F1080F05D0B8F10C0F08BF20
:10041000032E7FF425AF3868810303D5606808B9DF
:1004200001209DE02078810715D5B8F1040F05D093
:10043000B8F10C0F08BF022E7FF452AF38684105A7
:1004400002D5E0680028EBD07868216920F0F850E8
:1004500040EA01607860207801070ED560690028C5
:1004600068683FF461AF40F00100686000F0E4F9B3
:100470000646686881077FF52CAF2078410735D59F
:10048000B86D0026C10009D4B86D40F08050B86541
:100490000126B86D00F0805000900098DFF844937A
:1004A000D9F80000C10513D4D9F8000040F48070D9
:1004B000C9F8000000F0C0F98246D9F80000C10573
:1004C00006D400F0B9F9A0EB0A000328F5D3B3E68F
:1004D000A06801287FF438AF286840F00100286048
:1004E00043E71EB1B86D20F08050B865A06AB0B384
:1004F000B8F10C0F94D00228386820F08070386072
:100500007FF461AF00F098F90546386881013FF546
:100510004CAF206B616B401E090241EA0011A06BD9
:10052000E26B000941EA4041E06A52080143206C55
:10053000521E400841EA4251401E41EA4061F960C2
:10054000386840F080703860F96841F08071F96077
:1005500000F072F90446386881017FF52DAF002064
:10056000BDE8F687386840F0080038603968206ACE
:1005700021F0F001014339607968E06921F47F419D
:1005800041EA0021796070472DE9F0410400884676
:1005900076D0DFF85462306800F00700404509D299
:1005A0003168C90848EAC1013160306800F00700CD
:1005B000404565D12078DFF81852C10748D56068FA
:1005C000032802D129688A0108E0022802D129689B
:1005D0008A0303E00028296802D18A0702D44FE089
:1005E0004A054DD5A968890840EA8100A86000F055
:1005F00023F90746A868616800F00C00B0EB810F92
:1006000026D000F019F9C01B41F289318842F1D39C
:1006100003201BE02078410705D5AA68E06822F492
:10062000E0620243AA602178080706D5A96820691C
:1006300021F4605141EAC001A96000F02EF8AA68D7
:1006400000F020F8BDE8F04100F0DEB8BDE8F08130
:100650002078810705D5AA68A06822F0F00202433D
:10066000AA60316801F007018845D3D23068C0081C
:1006700048EAC0003060316801F007014145C9D047
:100680000120E3E75949C2F30312895C514A01F0A2
:100690001F01C84010600F20704710B54C4A906889
:1006A000D4680023002110F00C0004F0030403D0F0
:1006B0000C2812D1012C1AD113681C0704D4464B04
:1006C0001C68C4F3032302E01368C3F30313494C0B
:1006D00054F8233048B9194628E0042808BF464991
:1006E00024D0082822D1454920E00C281ED1D16809
:1006F000D068C0F30210401C01F00301022902D0AF
:10070000032902D005E03C4900E03C49B1FBF0F18F
:1007100001E0B3FBF0F1D068C0F306204143D0689C
:10072000C0F34160401C4000B1FBF0F1084610BD31
:1007300028482F4A006813683149C3F3022206E0B3
:1007400024482B4A006813682D49C3F3C222895CF0
:1007500001F01F01C84070477CB52A4E054630683D
:100760000024C10002D500F06DF80EE0306840F0C2
:1007700080503060316801F080510091009800F0A5
:1007800061F8316821F080513160B0F5007F04D10B
:10079000802D0CD9A12D09D304E0802D88BF03241E
:1007A00005D801D1022402E0702D00D101240E48A9
:1007B0000168C90844EAC1010160006800F007004F
:1007C000A04201D0012076BD002076BD00000000CF
:1007D00000100240000000209410024090100240DF
:1007E000FFFFEEFE0070004000200240D82B000802
:1007F00008100240E82B00080024F40000127A00E0
:10080000D02D00085810024038B50A490A6804463D
:100810004FF47A70B2FBF0F000F0A3F8002508B1B5
:10082000012505E0002221464FF0FF3000F072F86C
:10083000284632BD0000002001480068704700BF14
:1008400078070020DFF88800006800F4C060704777
:1008500010B5DFF87C10B0F5007F086800F4C060C8
:1008600015D1B0F5007F1BD00868DFF86820DFF8ED
:10087000684020F4C06040F4007000F020F84A693D
:1008800053050FD5002818BF401EF8D10AE0B0F577
:10089000806F05D0086820F4C06040F48060086074
:1008A000002010BD48694105FAD5032010BDDFF8CE
:1008B0002C00FFE7016841F4806101607047086027
:1008C000322013684343B3FBF4F0401C7047000030
:1008D000007000400000002040420F000470004003
:1008E0000901020006D5294A00F00F00104400F863
:1008F000041C7047264B19547047264B19684FF655
:10090000FF020002114000F4E0600843224908435E
:100910001860704738B51F4B1C68C4F30223C3F13D
:100920000704052C28BF04241D1D072D34BF0023F8
:10093000DB1E012505FA04F4641E2140994005FAE6
:1009400003F35B1E1A401143BDE83440C8E701229F
:1009500000F01F01114BFFE78A40400943F82020B7
:10096000704710B5401EB0F1807F01D3012010BD4B
:100970000B4C60600F214FF0FF30FFF7B1FF0021FB
:10098000A16007202060002010BD000018ED00E0ED
:1009900000E400E00CED00E00000FA0500E100E0FA
:1009A00010E000E00146481E0029FBD1704780B5E9
:1009B000DFF8D00486B0016841F080010160026870
:1009C00002F0800200920099026842F08002026008
:1009D0004FF48041006800F08000009002220098EF
:1009E000DFF8A404019104920121029101A900F011
:1009F00097FA4FF4007101910222012102910492B1
:100A000001A9DFF8880400F08BFA07B000BDF8B543
:100A100000F0B2FB00F0C7F800F024F90121DFF884
:100A20007044DFF87004217120604FF48071A1617F
:100A30000220042121620022E0600121A2602261E3
:100A40006261E2616262A162E2622263204600F0BA
:100A5000A3FB04F22455DFF84004DFF840142867B4
:100A6000696704F2A4560020A86701213060706015
:100A7000B060F0603061E96704F29457384600F0E6
:100A80003BFC0021384600F08FFC0021384600F086
:100A9000A0FCDFF80C04F063FF21316401207064D6
:100AA0000021F064B1643165716504F5BC6000F04B
:100AB000BBFC4FF48271E1634FF44071DFF8E40353
:100AC000A063616400202064A0640021E16461658A
:100AD000E1654FF400702065072161660020A06584
:100AE0002066A0660821E16604F1380000F018FDD8
:100AF00004F2A446EC48306000210C2070614FF4F1
:100B0000E137B160F1603161B161F161316271620F
:100B10007760304600F05CFDE448B06700210C20AF
:100B2000E86029606960A96029616961A961E9617A
:100B3000F76704F21C5000F04BFD062204F19C0004
:100B40004FF0A0414260022300220160C360836134
:100B5000C2610262426282620263C26200F096FF78
:100B6000FFF725FFC94CC84D4FF47A70FFF71AFF05
:100B7000012200F013F8002200F00BF84FF47A7015
:100B8000FFF710FF002200F009F8012200F001F841
:100B9000EAE74FF40071204600F0ADBA4FF480410F
:100BA000284600F0A8BA80B5B8B005A8442100F0E6
:100BB000D1FF6846142100F0CDFF16A8882100F06F
:100BC000C9FF00F0CBFFBA48016821F018010160AD
:100BD000142205920121602207910B910D920021B0
:100BE00001220C9110921192022128220F9112924F
:100BF0000721022213911492159205A8FFF7C4FA57
:100C00000F20032100F029F8039204920421684682
:100C1000FFF7BAFC012217921892002118222491A2
:100C200026912B91369119924FF0806102223191D9
:100C30001B921C9207219F4816904FF480121A9124
:100C40001D9216A800F092FF4FF40070FFF700FE0F
:100C500001F02BF939B000BD0B2100900191002269
:100C6000029270472DE9F84386B06846142100F0DF
:100C700071FF8448DFF840920468834D8F4EDFF89F
:100C80000C828F4F44F01004046048F20414016891
:100C900001F0100105910599026842F0040202601A
:100CA000036803F0040305930599026842F001020A
:100CB0000260036803F0010305930599026842F09E
:100CC00002020260036803F00203059305990268BB
:100CD00042F0080202600022006800F0080005905F
:100CE0004FF48A710598484600F005FA0022214623
:100CF0004FF0904000F0FFF900224FF21401284617
:100D000000F0F9F9002241F28101304600F0F3F9D8
:100D100001224FF40051304600F0EDF900224FF46B
:100D20001071404600F0E7F901222021284600F02A
:100D3000E2F901220121484600F0DDF940F21511E7
:100D400000F0D8F8484600F0EBF86A2000900197D0
:100D500000210291484600F0C5F84FF4005059496F
:100D600000F0D0F83F200B2100F0CCF800220292D6
:100D700003200221009001910390082200F0CAF89C
:100D800000940120019000220292039200F0A5F845
:100D90000022029203920820022100900191012278
:100DA00000F0B8F81020FFF757FF00F096F8022186
:100DB000FFF754FFE020032100900391052200F08B
:100DC000A9F8012100F080F8284600F08BF80220F5
:100DD000FFF742FF00F07DF84FF2340100F08AF88F
:100DE00000F078F84CF6044100F06EF8304600F060
:100DF00079F843F2810100F07DF8304600F090F878
:100E00004FF4107100F076F8404600F089F84FF486
:100E1000C07100F059F8404600F064F800220292D8
:100E200002200321009001900391052200F05DF85B
:100E30000221FFF713FF032103917820072200907E
:100E400000F053F812210191012202924FF44070F8
:100E50000321009003910422049200F03AF800224A
:100E600005211720FFF756FD1720FFF770FD002220
:100E700005212820FFF74EFD2820FFF768FD07B069
:100E8000BDE8F0834C100240000400480008004810
:100E9000040000202060014000580040EC9C9010AD
:100EA000001000A0003C0040003801400048004015
:100EB000901002408520010000100048000C0048FE
:100EC00000001110000021100091019700210291F3
:100ED00070476946284600F023B869464FF09040B5
:100EE00000F01EB8694600F01BB80492694630460F
:100EF00000F016B8009101220021029103910192A5
:100F0000694670470090019100220292694640466E
:100F100000F006B8049269464FF0904000F000B827
:100F20002DE9F84700267B4A0F230446884632E025
:100F3000794DAC4214BF072506258D4045EA0E05C4
:100F40004CF82750C74375490D6800F0CFF8ED0302
:100F500048BF40EA0C0CC1F800C04D6800F0C6F86C
:100F6000AD0348BF40EA0C0CC1F804C08D6800F026
:100F7000BDF8ED0248BF40EA0C0CC1F808C0CD68CE
:100F800007EA050CD8F80470BD0248BF40EA0C0C13
:100F9000C1F80CC0761CD8F8001031FA06F000F049
:100FA000A3800127B74017EA0100F3D0D8F8045016
:100FB000B100022D18BF122D12D1F50804EB850CDB
:100FC00001F01C05DCF820E0D8F810A003FA05F9C0
:100FD0002EEA090E0AFA05F545EA0E05CCF820506E
:100FE0004FEA460C4FF0030E256898F804900EFA6D
:100FF0000CFE6FEA0E0E09F003090EEA050509FA68
:101000000CF949EA05052560FF43D8F80450012D85
:1010100018BF022D03D0112D18BF122D14D1A568B1
:10102000D8F80C900EEA050509FA0CF949EA05050D
:10103000A5606568D8F80490C9F300193D4009FA25
:1010400006F949EA05056560D8F8045005F003097A
:10105000B9F1030F08D1D4F82C90C5F3C00507EA05
:101060000907B5402F43E762E7680EEA0705D8F89D
:10107000087007FA0CF73D43E560D8F80450EF001C
:1010800088D51568DFF898C045F00105156001F0B6
:101090000C01176807F00107009703FA01FE009F93
:1010A000B7085CF8275025EA0E0EB4F1904F08BF40
:1010B000002518D01B4DAC4208BF012513D01A4D96
:1010C000AC4208BF02250ED0184DAC4208BF032524
:1010D00009D0174DAC4208BF042504D0154DAC42D1
:1010E0007FF426AF052528E7BDE8F18707EA050C60
:1010F000D8F8045070470AB1816170478162704727
:101100000D4A136803421CBF106000F017B8704707
:101110000000000060100240001800480004014078
:10112000080001400004004800080048000C004886
:10113000001000480014004814040140704730B407
:10114000002513E050F8042BD30744BFA9F1010395
:101150009A18091F042942F8045BFAD213468C0737
:1011600044BF15809B1CC90748BF1D7050F8041B65
:101170000029E7D130BC7047032010B5FFF7BDFB55
:101180000F20FFF741FB0024002814BF012400F0CA
:101190008DFF204610BD000070B5040005D000F0A2
:1011A00067F8291D51F8200008B1012070BD2046C4
:1011B00000F098FF2868401C2860296801291AD18E
:1011C000DFF8B810086820F0804008600A68A0685E
:1011D00002430A600B6823F47F030B602079012827
:1011E00005D10A68E068401E42EA00420A600868C9
:1011F00040F0004008602068016821F471410160FE
:10120000036826696269A16916430E43334303608C
:1012100003681B091B0103600268E369216A0B4331
:101220001A430260826822F45F0282608168A36AC6
:10123000626A5B1E42EA034211438160416801F029
:10124000070141604168236BE26ADB0043EA022345
:10125000194341600122016841F08001016084F876
:10126000342000F00DF8291D41F82040002070BD09
:101270002068DFF8645000F003B80000006001400F
:101280001449884222D01549884201D10120704773
:101290001349884201D1022070471249884201D186
:1012A000032070471049884201D1042070470F493C
:1012B000884201D1052070470D49884201D106209E
:1012C00070470C49884201D10720704700207047C1
:1012D0000000000000600140540700202060014031
:1012E000406001406060014080600140A0600140BA
:1012F000C0600140E060014038B5040001D1012028
:1013000032BD04F14005687820B9002129702046DB
:1013100000F007FF00F040F86068216820F070607E
:1013200008612068816821F400418160E0682168DB
:101330000128A0680CBF40F4004040F404408860DD
:10134000E068022803D120684FF400614160206802
:10135000416841F0007141F4004141602068C1687A
:1013600021F40041C16060692169A26901432068DC
:1013700041EA0221C160206AE169226801431160EB
:101380002068016841F001010160002068602021AF
:1013900069702063A87032BD2420687020680168DD
:1013A000490849000160704730B500F140025378A8
:1013B000202B0CD11478012C09D000F01DF824F456
:1013C00080541C6003681D682943196020E00220D6
:1013D00030BD30B500F140025378202B0AD114788B
:1013E000012C07D000F008F824F4706444EA0124CA
:1013F0001C600DE0022030BD0123137024245470C2
:1014000003681D686D086D001D6003681C687047E7
:101410000068016841F00101016020205070002146
:101420001170002030BD0000F8B50446FFF704FA43
:1014300006460CB90120F2BD04F1380528780128D0
:1014400001D10220F2BD01212970687838B900214C
:101450002970204600F08EFE41F28830A8603346A5
:1014600020680168A26821F47061521E41EA0221DD
:10147000016000F029F801001ED1226810491368AC
:1014800066680B40E16843EA06630B4313600D494D
:1014900023685E68276962690E4046EA0746A169CB
:1014A00016430E435E6021680A6842F001020A603A
:1014B0000021696001226A7000212970F2BD0000DC
:1014C000EFFFFF00FEF8E0FF0022A8680090202157
:1014D0002046FFE72DE9F041069C05460E46904662
:1014E0001F462868816816EA010018BF01204045A0
:1014F00012D014F1010FF4D0FFF79EF9C01B844203
:1015000001D3002CEDD1042085F839000120E96BCE
:1015100041F00101E96300E00020BDE8F081000036
:1015200070B5040001D1012070BD0020A06204F15B
:101530005C05687820B900212970204600F053FE30
:101540000220687000F03DF8E168B1F5E06F04D961
:101550000022B1F5706F03D104E04FF4805201D046
:101560000020A062206B30B9B1F5E06F87BF022088
:101570002063012121636368A06821692668034311
:1015800060690B43A169034301F40071E0690B43F7
:10159000216A0343A06A0B4303433360A369606A73
:1015A000616B1B0C03F004030343E0680B4303432C
:1015B0001A4323685A600021696001206870002086
:1015C00070BD2068016821F0400101607047000093
:1015D00038B5040009D004F17005697809B900F044
:1015E0001EF800F021F8012801D1012032BD606A07
:1015F00008B100F02AF800F00AF821F02A01FFE70C
:10160000816000F01BF8BDE8324000F0E0B92068CE
:10161000416821F490414160206881687047002052
:101620002870204600F008BE2421697020680268F6
:10163000520852000260204600F00AB82068016893
:1016400041F00101016020467047204600F05CB97E
:101650002DE9F04104469D482268DFF874E21368E2
:10166000A168034020690B4361690343E0690B43B0
:101670000343136010275168E06821F4405101438F
:10168000516000260025A36992498A421CBF206A46
:101690000343906820F430600343936072458E48A2
:1016A0008E4B21D11B6803F00303032B4CD8DFE8DA
:1016B00003F0023A294A0127E169B1F5004F4FF6DC
:1016C000F07840F0D48067B1012F00F0AA80022F9B
:1016D00000F0AA80042F00F0AC80082F00F0B28048
:1016E000B8E0FFF725F8A6E0DFF8F4C162450BD1BA
:1016F0001B6813F00C035FD0042B14D0082B01D00F
:101700000C2B0EE002271FE0DFF8D8C162450CD198
:101710001B6813F030034FD0102B04D0202BF1D0D6
:10172000302B10D010E004270EE0DFF8BCC162457A
:1017300022D11B6813F0C0033ED0402BF3D0802B86
:10174000E0D0C02B00D108278A42B5D1390006D09D
:10175000022F08D0042F31D0082F32D0AFE0FEF78F
:10176000E7FF00285CD0626802EB4201884202D3A6
:101770001303834228D2A2E0DFF870C162450CD186
:101780001B6813F4407317D0B3F5807FCBD0B3F54B
:10179000007FB7D0B3F5407FC3E78A42D4D11B683E
:1017A00013F4406308D0B3F5806FBCD0B3F5006F7D
:1017B000A8D0B3F5406FB4E70027C5E7FEF76DFF8B
:1017C000CFE74FF40040CEE737B1022F0AD0042F05
:1017D0000ED0082F16D01BE0FEF7AAFF00F08EF8FF
:1017E00079410AE0424911EB520045EB050104E062
:1017F000FEF753FF00F082F86941002300F0CCFDB2
:10180000064606E0530803F50003B3FBF2F600E0DA
:101810000125A6F540703749884250D22268D6602B
:101820004EE0FEF78DFF06E06068334901EB5001A2
:101830000CE0FEF732FF61684A0802EB4002B2FB9F
:10184000F1F605E06068410801F58031B1FBF0F682
:10185000B6B200E00125A6F1100040452FD208EAFB
:101860000601C6F3420001432068C16028E047B189
:10187000012F09D0022F0CD0042F08D0082F0ED032
:1018800015E0FEF755FF04E0FEF75AFF01E0FEF712
:1018900004FF616800EB5100B0FBF1F605E0606801
:1018A000410801F50041B1FBF0F6B6B200E00125B8
:1018B000A6F11000404502D22168CE6000E001256B
:1018C0000020206660662846BDE8F081F369FFEFDE
:1018D00000380140008000400024F40088100240DD
:1018E0000044004000480040004C004000500040D0
:1018F000000024F400FD0F000048E8016268010EBA
:10190000560816EB0020704790F82410CA0706D539
:1019100002685368816A23F400330B43536090F8E4
:1019200024108A0706D502685368C16A23F48033FD
:101930000B43536090F824104A0706D50268536899
:10194000016B23F480230B43536090F824100A07A3
:1019500006D502685368416B23F400430B43536080
:1019600090F82410CA0606D502689368816B23F4A8
:1019700080530B43936090F824108A0606D50268C2
:101980009368C16B23F400530B43936090F82410C9
:101990004A0610D502685368016C23F480130B4388
:1019A0005360036CB3F5801F05D15368416C23F479
:1019B000C0030B43536090F824100A0606D5016853
:1019C0004A68806C22F4002202434A607047F8B5EE
:1019D000044604F17005002068606FF07E47FEF752
:1019E0002BFF0646206801680A0708D50097334692
:1019F00000224FF40011204600F016F860B920686C
:101A000001684A070AD50097334600224FF4800147
:101A1000204600F009F808B10320F2BD20206870CC
:101A2000A87000202870F2BD2DE9F041069C054603
:101A30000E4690461F462868C1693140B1420CBF2E
:101A400001200020404518D114F1010FF3D024B13A
:101A5000FEF7F2FEC01B8442EDD22868016821F433
:101A6000D071016000F00CF805F170002021417088
:101A7000817000210170032000E00020BDE8F081AA
:101A800028688168490849008160704770B5040082
:101A90008AB008BF012055D004F56F75687820B969
:101AA00000212970204600F00FFC032068700026FA
:101AB000206800F0B5FD83B000F046F80EBC206849
:101AC00000F082FD2068002100F0B0FD00211C2004
:101AD00000FB01F222443C3201231170D18053708B
:101AE000491C00230F29D6709360D6605361EFD351
:101AF000002100FB01F2224402F5FE721170491C24
:101B00000F295370D6709360D6605361F1D383B0C0
:101B100000F01AF80EBC206800F09CFD84F83860D4
:101B200001216970606A012804BF204600F078FE38
:101B3000A06A012804BF204600F085FE206800F05E
:101B400047FE00200AB070BD211D6846342200F017
:101B500085BE0000002200F0C5BE000002480168FA
:101B600041F4807101607047007000402DE9FC472E
:101B7000054600242868DFF808640105A14621D540
:101B8000686E70B1B0F5800F17D0B0F5000F03D0BC
:101B9000B0F5400F09D013E0326842F48032326071
:101BA00004E0002100F07FF9044654B9F16F686E3B
:101BB00021F440010143F16704E000F06EF9F3E71E
:101BC0000124A1462868C10421D5A86EA8B1B0F1AE
:101BD000807F17D0B0F1007F03D0B0F1407F04D0F8
:101BE00013E0316841F4803131607CB9F16FA86E47
:101BF00021F040710143F16709E0002100F053F941
:101C00000446F2E700F049F9FAE70124A146286802
:101C100081032BD5F06CC1004FF000080AD4F06CA2
:101C200040F08050F0644FF00108F06C00F08050FC
:101C300000900098DFF85C74386840F48070386079
:101C4000FEF7FAFD82463868C10500F1F780FEF71D
:101C5000F3FDA0EB0A000328F5D30324A146B8F155
:101C6000000F03D0F06C20F08050F0642878C1079A
:101C700005D5F26FA86B920840EA8202F2672978D4
:101C8000880705D5F16FE86B21F00C010143F1677E
:101C90002978480705D5F16F286C21F03001014300
:101CA000F1672978080705D5F16F686C21F0C0014C
:101CB0000143F1672978C80605D5F16FA86C21F4B6
:101CC00040710143F1672978880605D5F16FE86C0A
:101CD00021F440610143F1672968880505D5F16F5A
:101CE000E86D21F440210143F1672968480505D5D5
:101CF000F16F286E21F440110143F16729784806FD
:101D000005D5F16F286D21F440510143F167297821
:101D1000080605D5F16F686D21F440410143F16774
:101D20002968C80505D5F16FA86D21F4403101433C
:101D3000F167296888041FD5F16FE86E21F04061D2
:101D40000143F167E86EB0F1006F0DD100F0A0F82B
:101D500012E0FEF771FD001B41F289318842C0F0AC
:101D60008B804FF003097AE7B0F1806F04D100F067
:101D700099F8010018BF81462868010314D5F26F55
:101D8000286F22F040620243F267286FB0F1006FC3
:101D900002D100F07DF807E0B0F1806F04D100F0CF
:101DA00081F8010018BF81462868410314D5F26FFD
:101DB000686F22F040620243F267686FB0F1006F13
:101DC00002D100F065F807E0B0F1806F04D100F0B7
:101DD00069F8010018BF81462868410418D5F26FE0
:101DE000A86F22F040520243F267A86FB0F1805F03
:101DF00003D1022100F057F807E0B0F1005F07D1EE
:101E0000022105F1200000F0BDF8010018BF814655
:101E10002868010405D5F26FE86F22F08042024382
:101E2000F2672968C80306D5F16FD5F8800021F064
:101E300000410143F1674846BDE8F687002C7FF476
:101E40000DAFDFF85472386810F440701CBFD5F83D
:101E5000841088420BD03868396841F48031396089
:101E600020F440703A6822F480323A603860C0074B
:101E700006D5FEF7E1FC0446386881077FF569AFB7
:101E80003A68D5F8840022F4407202433A60E6E6EC
:101E9000306840F4801030607047002105F1200068
:101EA00000F070B80121281D05E07C48016841F070
:101EB0000401016070472DE9F04100F0E2F809D01B
:101EC000F16801F0030181422BD150B300F0BCF85E
:101ED0000CD026E0012804D023D303281BD016D32E
:101EE0001FE0326891071CD500F0BEF8306820F082
:101EF000806000F0C3F880463068010133D5FEF7FA
:101F00009BFCA0EB08000328F6D3032536E03168DC
:101F10004A05E9D405E031688A03E5D431684A030B
:101F2000E2D401252AE0012C326909D13B695C48E1
:101F300002405B0842EA01215B1E41EA435102E094
:101F40007B6900F088F83161306840F0806000F013
:101F500095F80446306801010CD4FEF76DFC001BB7
:101F60000328F7D3D1E7B968002CDCD1326900F03F
:101F700062F8E8E73169B8690143316158E000006F
:101F80000C1002402DE9F04100F07BF809D0F16817
:101F900001F0030181422BD150B300F055F80CD071
:101FA00026E0012804D023D303281BD016D31FE03A
:101FB000326891071CD500F057F8306820F0805047
:101FC00000F05CF880463068810026D5FEF734FCCE
:101FD000A0EB08000328F6D3032529E031684A0561
:101FE000E9D405E031688A03E5D431684A03E2D4D4
:101FF00001251DE03B6900F02EF87161306840F06A
:10200000805000F03BF80446306881000CD4FEF7A5
:1020100013FC001B0328F7D3DEE7B9687269002CB4
:10202000E8D100F008F8E8E7716978690143716167
:102030002846BDE8F0811B48FB68024042EA0121C6
:102040001B0941EA43417047F0687968C0F3021008
:10205000401C88427047144802405B0842EA012154
:102060005B1E41EA43617047F268796822F07302AF
:102070001043491E40EA0110F06070473060FEF7DF
:10208000DBBB0746054E38680C46F168002511F0A9
:10209000030F704700700040901002400010024093
:1020A000FF809FFFFF80FDFFFF80FFF9DFF8AC029C
:1020B00082B0816841F001018160816801F0010115
:1020C00000910099026842F080520260002200688C
:1020D00000F0805000900F2100986FF0010002B0D6
:1020E000FEF718BC10B586B000F06DF8DFF870424E
:1020F0002068A0B9DFF86C02416941F0807141614C
:10210000416901F0807100F056F84FF4207100F041
:102110005EF804910621059101A9FEF701FF06B0C2
:1021200010BD38B586B000F04DF824688E4DAC4235
:102130001ED18C4C206840F00200206012222168E1
:1021400001F0020100914FF440610098874801912D
:102150000292012103910322042100F027F8E06894
:1021600040F48000E060E06800F480000090009897
:1021700007B030BD38B586B000F024F824687C4D37
:10218000AC4211D17748416841F4807141604168A7
:1021900001F4807100F00FF84FF47C4100F017F863
:1021A00003220A2100F002F807B030BD0591049225
:1021B00001A9FEF7B5BE00910099026842F0100235
:1021C00002607047044601A81421FFF7C3BC0068F1
:1021D00000F01000009002220098664801910292DF
:1021E00000210391704738B586B0FFF7EBFF2468F4
:1021F000614DAC421ED15B48C16841F40041C160F1
:10220000C16801F4004100910099026842F00402A3
:1022100002604FF4E051006800F0040000900222D8
:102220000098564801910292002103910322062151
:10223000FFF7BCFF07B030BD10B586B00446684656
:102240001421FFF787FC20684D4C4649A04215D168
:10225000486940F480404861486900F48040059036
:1022600005980A6842F002020A600222096801F039
:1022700002010591C02105983C4818E0414A90426E
:1022800020D1C86840F48020C860C86800F480206D
:10229000059005980A6842F008020A60022209685F
:1022A00001F0080105914FF44071059836480091FE
:1022B00001920021029103220721049103926946B1
:1022C000FEF72EFE06B010BD10B586B0FFF77AFF00
:1022D0002468B4F1A04F39D1224C206840F00100AD
:1022E00020600022216801F0010100914FF400718B
:1022F000009801910292039200F02AF802210291C3
:10230000002203924FF4E0500321019004910A222D
:10231000059200F01DF8206840F48050206021688C
:1023200001F4805100910098E168C8000CD4E16884
:1023300041F08051E16000F029F8FEF7B8FAE0685A
:1023400020F08050E06001E0FEF7B1FA06B010BD69
:1023500001A94FF09040FEF7E3BD00005810024085
:102360007C0700204C100240005800400004004848
:10237000001000A000100048003C00400008004889
:102380000038014000480040000C0048E06800F0C0
:102390008050009000987047BBBBE1B1B2F5803F20
:1023A00080F07E80022A1ED98C46B1FBF2F102FB3E
:1023B00011C31B0443EA1043B3FBF2FC02FB1C33C2
:1023C00080B240EA0343B3FBF2F002FB103240EA72
:1023D0000C4000237047022A05D98446B0FBF2F076
:1023E00002FB10C270474AB105D100F00102490852
:1023F0005FEA3000704700220023704700F08CBA7B
:102400000B000200002100207047904271EB030C8A
:10241000F6D3B3F5803F2FD2F0B5B3FA83F7B1FA14
:1024200081F4A7F10F0E3D1B5340CEF1200602FAB6
:102430000EF2F3415340B5F10F0746D80F3C2C4440
:102440004140C4F12006A040F1414140B1FBF3F608
:1024500003FB1611A2FB0645001BA94102D2761E02
:102460008018594180EA010221FA0EF362FA0EF255
:1024700000215A403046F0BD30B4B1FBF3FC03FB01
:102480001C11A2FB0C45001BA94103D2ACF1010CAD
:102490008018594130BC02460B4660460021704707
:1024A000B2F1807F65D3F0B5B2FA82F7B1FA81F468
:1024B000C7F10F063D1B22FA06F307F1110EF24198
:1024C00020355A40B5F10F07B8D94140C4F1200674
:1024D000A040F1414140B1FBF3FC03FB1C11A2FB06
:1024E0000C45001BA94103D2BCF1010C80185941D5
:1024F0000F2F12D30F3FC90341EA5041B1FBF3F64E
:1025000003FB1611A2FB0645D4EBC030A94102D251
:10251000761E8018594146EACC3C07B34140C7F1CA
:102520002006B840F1414140B1FBF3F603FB161120
:10253000A2FB0645001BA94102D2761E8018594114
:1025400080EA010221FA0EF3C7F1200462FA0EF2CA
:102550000CFA07F05A402CFA04F13043F0BD80EA3F
:10256000010221FA0EF3002162FA0EF260465A408F
:10257000F0BD8C46B1FBF2F102FB11C31B0243EA32
:102580001063B3FBF2FC02FB1C331B024CEA00207D
:1025900043EA1063B3FBF2FC02FB1C331B024CEA60
:1025A000002043EA1063B3FBF2FC02FB1C331B0266
:1025B0004CEA002043EA1063B3FBF2FC02FB1C323E
:1025C0004CEA0020002370470EB418B50446089862
:1025D000012817D1A06B20F48030A063E168DFF8F8
:1025E00034020140E160E16821F44011E1600F989C
:1025F000012803D1E06840F48010E060204600F03C
:10260000F3F809E0E06840F04000E060204600F0A8
:10261000EBF84FF48030A063002012BC5DF810FB93
:1026200081684908490081600020704780B5C26810
:1026300022F0C0420129C26005D1C16841F00051B9
:10264000C1603220CCE019B9C16841F08041F7E7A0
:10265000012002BD0EB42DE9F841064604460021D2
:10266000002004EB8102491C0F29C2F80401F8D3B1
:10267000A06B40F40010A063DDF84480B8F1000FB7
:102680000BD1A06B20F40010A063216841F0400141
:102690002160206840F08000206006F56062002123
:1026A00006F50067116003213B683B60204600F09F
:1026B00087F81021204600F067F8204600F073F8F4
:1026C000002038617861F8614FF67F324FF0904317
:1026D0004FF0006C3146002503E035603561B26093
:1026E000401C079EB04228D201EB401606F510664A
:1026F000D6F800E0BEF1000FEFD5002806BF01F5C7
:10270000106ECEF800C03360E8E735603561B26026
:10271000401C079EB04212D201EB401606F530660F
:10272000D6F800E0BEF1000FEFD5002806BF01F596
:10273000306ECEF800C03360E8E70020E9E7386982
:1027400020F480703861A5616FF080406061A169FC
:10275000DFF8C40041F01001A161A1690143A1614A
:102760000D9818B1A06940F00800A061B8F1010F00
:1027700005D1A06940F0804040F00400A061002035
:10278000BDE8F2015DF810FB890141F02001016113
:10279000DFF88810491E04D002699306FAD400209D
:1027A00070470320704710210161DFF87010491E47
:1027B00004D00269D306FAD4002070470320704782
:1027C00000F5006002681143FFE7016000207047D8
:1027D00080B500F50060416841F0020141600320CE
:1027E00000F09BF8002002BDDFF830201146491EA2
:1027F0000DD00369002BFAD5016941F00101016197
:10280000521E04D00169CB07FAD400207047032080
:1028100070470000BFFFBDFF00383C80410D030042
:10282000016800F57D7001220023826003708869D1
:1028300040F000608861486D40F0805040F0030037
:1028400048650020704701680122C0F80024886BA9
:1028500040F40030FFE7886300207047103A07D348
:1028600030B4B1E83810103AA0E83810F9D230BCD2
:10287000530724BFB1E80810A0E8081044BF51F87E
:10288000043B40F8043BD20724BF31F8022B20F868
:10289000022B44BF0B7803707047121F17D35B00E5
:1028A00009D151F8043B20F8023B1B0C121F20F801
:1028B000023BF6D20BE051F8043B00F8013B1B0A47
:1028C00020F8023B1B0C121F00F8013BF3D238BF6B
:1028D000121D521E24BF11F8013B00F8013BF8D82D
:1028E0007047000000B500BF1300964694461039AB
:1028F00028BFA0E80C50FAD85FEA417C28BF0CC082
:1029000048BF40F8042BC90728BF20F8022B48BF56
:1029100000F8012B00BD0000704738B50446FDF7F4
:102920008BFF14F1010F054618BF641CFDF784FFEF
:10293000401BA042FAD331BD2DE9F843DFF85071B6
:10294000386F002600284FD13C6D641C3C6511D1C6
:10295000F86A006828B1502181F3118800F075F8F9
:10296000FEE7F86A396BF9623863786E401C786666
:1029700000F070F8F86EDFF81C9184424FF01408F4
:1029800025D31AE0281D00F096F8A86A18B105F1C1
:10299000180000F090F8E86A796D01228240114336
:1029A000796508FB00F0291D484400F077F8E86AD3
:1029B000B96ACA6A904228BF0126F86A006880B1E5
:1029C000F86AC168CD6868688442DBD2F866B86A84
:1029D000C06A08FB00F059F80010022907D301264D
:1029E00005E04FF0FF30F1E7F86D401CF865386EF8
:1029F00000B1012648E0DFF89820106F10B10121E6
:102A00001166704710661421506DB0FA80F3C3F15F
:102A10001F034B43DFF87C10C85838B9502181F3AD
:102A20001188BFF34F8FBFF36F8FFEE7C81800F117
:102A30000803416849684160994204BF49684160A0
:102A40004068C168916270470860BFF34F8FBFF361
:102A50006F8F7047DFF83810C86A006810B94FF000
:102A6000FF3203E0C86AC268D0684268CA6670472D
:102A7000DFF82410886D08B901207047086F08B985
:102A800002207047002070473046BDE8F283000006
:102A900028060020C80600202806002010B542683D
:102AA0004A6093688B609468616091600861016816
:102AB000491C016010BD4368016982689A6083689F
:102AC00042685A604A68824204BF83684B600022B1
:102AD00002610868401E086008687047EFF30980CB
:102AE000BFF36F8F264B1A681EF0100F08BF20ED42
:102AF000108A20E9F04F106009B44FF0500080F3C5
:102B00001188BFF34F8FBFF36F8FFFF774FF4FF044
:102B1000000080F3118809BC19680868B0E8F04F1C
:102B20001EF0100F08BFB0EC108A80F30988BFF3C5
:102B30006F8F7047124B19680868B0E8F04F80F348
:102B40000988BFF36F8F4FF0000080F31188704742
:102B50000C480068006880F308884FF0000080F39C
:102B6000148862B661B6BFF34F8FBFF36F8F00DF7B
:102B7000DFF81400016841F4700101607047000043
:102B80005006002008ED00E088ED00E00E480168E6
:102B900041F47001016000220C49086840F0010016
:102BA00008608A604FF480520B68094803400B604C
:102BB000CA6000200B68074A23F480230B608861F9
:102BC0004FF000611160704788ED00E00010024096
:102BD000FFFFF6EA08ED00E0000000000000000042
:102BE0000102030406070809A0860100400D030046
:102BF000801A060000350C0040420F0080841E0041
:102C000000093D0000127A000024F40000366E0135
:102C10000048E801006CDC027047FEE7FEE7FEE7D3
:102C2000FEE7704780B500F02BF8BDE8014000F0EA
:102C30002FB880B52020FEF763FA4020FEF760FA37
:102C40008020FEF75DFABDE802404FF48070FEF789
:102C500057BA80B54FF48060FEF752FA4FF4006027
:102C6000FEF74EFA4FF40050FEF74AFA4FF4804058
:102C7000FEF746FABDE802404FF40040FEF740BAC6
:102C800002480168491C0160704700BF78070020B6
:102C900080B5FFF7EDFE012803D0BDE8014000F04C
:102CA00001B801BD80B5502080F31188BFF34F8F6C
:102CB000BFF36F8FFFF740FE18B104494FF080500B
:102CC0000860002282F3118801BD000004ED00E0DD
:102CD00030B450F8041B79B10268436802440830EC
:102CE000DC0744BFA9F10104E31852F8045B43F880
:102CF000045B091FF9D1ECE730BC704710B50749F8
:102D000079441831064C7C44163404E00A68081DE6
:102D1000114488470146A142F8D110BD2C000000A3
:102D20004C0000004EF68851CEF20001086840F4D5
:102D300070000860BFF34F8FBFF36F8F4FF00070CC
:102D4000E1EE100A70470000F7E3FFFF7C07000088
:102D5000040000200000000079FFFFFF04000000D5
:102D6000B0010000000000200000000000F00DF89D
:102D7000002801D0FFF7C2FFAFF300800020AFF3BF
:102D80000080FDF744FE00F002F80120704700F0DB
:102D900001B800000746384600F002F8FBE70000E3
:102DA00080B5AFF30080024A11001820ABBEFBE7EC
:102DB0002600020001488047014800478D2B00088B
:102DC000C52D0008AFF30080FFF7ACFFFFF7CEFF83
:102DD0000000000001020304FFF7FEBFFFF7FEBF83
:102DE000FFF7FEBFFFF7FEBFFFF7FEBFFFF7FEBF17
:102DF000FFF7FEBFFFF7FEBFFFF7FEBFFFF7FEBF07
:102E0000FFF7FEBFFFF7FEBFFFF7FEBFFFF7FEBFF6
:102E1000FFF7FEBFFFF7FEBFFFF7FEBFFFF7FEBFE6
:102E2000FFF7FEBFFFF7FEBFFFF7FEBFFFF7FEBFD6
:102E3000FFF7FEBFFFF7FEBFFFF7FEBFFFF7FEBFC6
:102E4000FFF7FEBFFFF7FEBFFFF7FEBFFFF7FEBFB6
:102E5000FFF7FEBFFFF7FEBFFFF7FEBFFFF7FEBFA6
:102E6000FFF7FEBFFFF7FEBFFFF7FEBFFFF7FEBF96
:102E7000FFF7FEBFFFF7FEBFFFF7FEBFFFF7FEBF86
:102E8000FFF7FEBFFFF7FEBFFFF7FEBFFFF7FEBF76
:102E9000FFF7FEBFFFF7FEBFFFF7FEBFFFF7FEBF66
:102EA000FFF7FEBFFFF7FEBFFFF7FEBFFFF7FEBF56
:102EB000FFF7FEBFFFF7FEBFFFF7FEBFFFF7FEBF46
:102EC000FFF7FEBFFFF7FEBFFFF7FEBFFFF7FEBF36
:102ED000FFF7FEBFFFF7FEBFFFF7FEBFFFF7FEBF26
:102EE000FFF7FEBFFFF7FEBFFFF7FEBFFFF7FEBF16
:102EF000FFF7FEBFFFF7FEBFFFF7FEBFFFF7FEBF06
:102F0000FFF7FEBFFFF7FEBFFFF7FEBFFFF7FEBFF5
:042F100000093D0077
:0400000508002DC5FD
:00000001FF
