:020000040800F2
:1000000000400120E1B500082DB600082DB600081B
:100010002DB600082DB600082DB60008000000001F
:100020000000000000000000000000002DB60008E5
:100030002DB60008000000002DB600082DB60008FF
:100040002DB600082DB600082DB600082DB6000804
:100050002DB600082DB600082DB600082DB60008F4
:100060002DB600082DB600082DB600082DB60008E4
:100070002DB600082DB600082DB600082DB60008D4
:100080002DB600082DB600082DB600082DB60008C4
:100090002DB600082DB600082DB600082DB60008B4
:1000A0002DB600082DB600082DB600082DB60008A4
:1000B0002DB600082DB600082DB600082DB6000894
:1000C0002DB600082DB600082DB600082DB6000884
:1000D0002DB600082DB600082DB600082DB6000874
:1000E0002DB600082DB600082DB600082DB6000864
:1000F0002DB60008000000002DB600082DB600083F
:100100002DB600082DB600082DB600082DB6000843
:100110002DB600082DB600082DB60008000000001E
:100120002DB60008000000000000000000000000E4
:1001300000000000000000005FF808F110B5054C59
:10014000237833B9044B13B10448AFF30080012383
:10015000237010BD9C03002000000000C86A010845
:1001600008B5034B1BB103490348AFF3008008BD3A
:1001700000000000A0030020C86A0108154B002BF6
:1001800008BF134B9D46A3F5803A00218B460F46CE
:100190001348144A121A0EF03EF80F4B002B00D0F1
:1001A00098470E4B002B00D09847002000210400F8
:1001B0000D000D48002802D00C48AFF300800DF070
:1001C00055FE200029000BF0D5F90DF0B5FA00BF5F
:1001D00000000800004001200000000000000000B6
:1001E0009C030020940E002000000000000000008E
:1001F000002070470B7848780A49C3F38202895C73
:100200005B0003F00603C0F3401203EBC103134489
:10021000012200F01F0002FA00F0034A52F82330D6
:10022000184070476C5001086C51010810B50A78ED
:100230004B78887812010C49D2B2C3F383040A4484
:10024000115D5B0003F00603C0F3401203EBC10332
:100250001344012200F01F0002FA00F0034A52F892
:100260002330184010BD00BF6C5001086C510108CC
:100270000B7848780A49C3F38202895C5B0003F07B
:100280000603C0F3401203EBC1031344012200F044
:100290001F0002FA00F0034A52F82330184070475A
:1002A0006C5601086C51010810B50A784B788878B3
:1002B00012010C49D2B2C3F383040A44115D5B00FE
:1002C00003F00603C0F3401203EBC1031344012201
:1002D00000F01F0002FA00F0034A52F823301840E1
:1002E00010BD00BF6C5601086C5101088B781806D0
:1002F00007D50A78EF2A06D14878BF2803D1BD2B4D
:1003000011D90120704703F0C003C02BF9D0E02AB7
:10031000487808D19F28F4D900F0C000A0F1C003AC
:1003200058425841704748780106EAD5ED2AF3D182
:100330009F2894BF00200120704791422DE9F04191
:1003400006460C461746984600F08E800B7803440C
:1003500093F848300A2B5BD8DFE803F031315A5A62
:10036000062A4650311826004D1CAF427FD04B78EC
:100370005D2B29D18B1C9F4279D08B783E2B23D1CA
:1003800028200334C8F80040BDE8F0814B1C9F4290
:100390006DD04A78164496F848200A2A08BF8B1C6C
:1003A000C8F800300720EFE70134C8F80040F9E74B
:1003B0007B1A012B5EDDD0F86031984718B1C8F880
:1003C00000400020E0E7A51CBD4226D02B78334436
:1003D00093F848300A2B45D8DFE803F01F1F444448
:1003E0001F1C2C381F1F1F007B1A022B42DDD0F868
:1003F000643198470028E2D1E51CE5E77B1A032B1E
:1004000038DDD0F8683198470028D8D1251DDBE7C2
:100410004D1CD9E77B1B012B03DCC8F800500620DC
:10042000B2E7D6F860312946304698470028F4D123
:100430000235C9E77B1B022BEFDDD6F86431294674
:10044000304698470028E8D10335BDE77B1B032BD6
:10045000E3DDD6F868312946304698470028DCD1DC
:100460000435B1E70135AFE76FF003008CE74FF0DB
:10047000FF3089E76FF0010086E700009142F8B590
:1004800005460C4617461E4602D14FF0FF30F8BD18
:100490000B78034493F84830072B36D005D8052B4A
:1004A0001CD0062B27D0346016E0162B5FD0182BFB
:1004B0005DD0132BF7D14A1CBA42E6D04B78782B8B
:1004C0003ED18A1C9742E0D08B78034493F84830A1
:1004D000183B012B23D932600020D8E7531A012B97
:1004E00002DC6FF00100D2E7D0F8543198470028C1
:1004F000D9D002343CE0531A022BF2DDD0F8583147
:1005000098470028CFD0033432E0531A032BE8DD9C
:10051000D0F85C3198470028C5D0043428E0033473
:10052000A7422346B1D01A7801342A4492F84820D1
:10053000122A18D002D3183A012AF1D93360CBE736
:10054000034493F84830192BC5D10234A7422346FF
:100550009BD01A7801342A4492F84820122A02D0FB
:10056000192AF3D0EAE7013333600A208FE7013418
:10057000BC428AD023782B4493F84830053B182B93
:1005800091D801A252F823F0ED05000809060008F1
:1005900023060008A7040008A7040008A704000811
:1005A000A7040008A7040008A7040008A70400087F
:1005B000A7040008A7040008A70400083D060008D7
:1005C000A7040008A7040008A70400086F05000896
:1005D000A70400086F0500086F0500086F050008F4
:1005E0006F050008A7040008A70400083B1B012BA7
:1005F0007FF777AFD5F8483121462846984700283D
:100600007FF477AF346042E73B1B022B7FF769AF83
:10061000D5F84C3121462846984700287FF473AF1F
:10062000F0E73B1B032B7FF75CAFD5F85031214639
:100630002846984700287FF470AFE3E70134346020
:10064000092024E79142F8B505460C4617461E4698
:1006500002D14FF0FF30F8BD0B78034493F84830D7
:10066000053B192B19D8DFE803F00D1B25182F2F98
:10067000181818181818181818182F3218321818AF
:100680001818182F7B1A012B02DC6FF00100E2E72B
:10069000D0F854319847002863D134600020DAE75D
:1006A0007B1A022BF1DDD0F8583198470028F4D09E
:1006B00003340DE07B1A032BE7DDD0F85C3198475B
:1006C0000028EAD0043403E031601620C3E7013487
:1006D000BC42BED023782B4493F84830053B182BFE
:1006E000DBD801A252F823F04D0700086707000885
:1006F0007D0700089B0600089B0600089B06000873
:100700009B0600089B0600089B0600089B06000845
:100710009B0600089B0600089B060008930700083C
:100720009B0600089B0600089B060008CF060008F1
:100730009B060008CF060008CF060008CF06000879
:10074000CF0600089B0600089B0600083B1B012BF8
:100750009BDDD5F8483121462846984708B93460D2
:1007600079E70234B4E73B1B022B8EDDD5F84C3120
:1007700021462846984700289AD1F0E73B1B032BD7
:1007800083DDD5F85031214628469847002899D175
:10079000E5E7013434601C205DE700BF2DE9F0413E
:1007A00080460D4614461E46069FB44202D14FF0C5
:1007B000FF304AE023782B4493F848300D2B46D87D
:1007C000DFE803F010104545450716221045454562
:1007D0002E2E331B012B3CDDD5F8603121462846F7
:1007E000984710B13C6000202FE0A21C1446DCE7C3
:1007F000331B022B2DDDD5F864312146284698475E
:100800000028EFD1E21CF1E7331B032B21DDD5F8E3
:1008100068312146284698470028E3D1221DE5E7A4
:10082000434504F10102E1D1964215D03A60637864
:100830001D4495F848301E2BD5D801229A40084B0C
:100840001340002B0CBF00201B20BDE8F081621C70
:10085000CCE76FF00100F8E76FF01A00F5E700BF92
:10086000000E30404FF0010CF0B5DFF850E0013AD7
:10087000013191420F4601D1012016E011F8016BC0
:10088000841994F84840093CE4B21A2C10D80CFAA8
:1008900004F414EA0E0FECD114F4083506D1E50483
:1008A00006D5092EE5D100201F60F0BD3406E0D545
:1008B000242EDED0402EDCD0F5E700BFF387E5071D
:1008C0002DE9F043002501248446AE4628462646FD
:1008D000013191F800900CEB090797F84870033F3D
:1008E0001A2F1AD8DFE807F080190E1B27197C7C15
:1008F000873D52191919871919195E3319331919B6
:100900001919330044B99042BEBF04011F1919518F
:100910004FF00104B8BF3E7301310131D9E744B94A
:100920009042BEBF04011F1919514FF00104B8BF16
:100930003E730231F1E744B99042BEBF04011F1972
:1009400019514FF00104B8BF3E730331E5E7002CA5
:10095000E3D1904203DA04011F1919513E730124B7
:10096000DBE7022C08D0904203DA03EB00144D1CA5
:1009700065600C250224D0E70C2DCED19042BCBF7F
:1009800003EB0014A16001300024C6E7022C07D05D
:10099000904203DA03EB00144D1C65600D25E9E776
:1009A0000D2DEAE7012CEFD0022CB6D19042B4DA3B
:1009B00003EB001898F80C70002FAED0D8F8047034
:1009C0008F420AD0B9F1200F07D14F78202F04D0E1
:1009D000674497F84870AF429FD188F80CE09CE7D5
:1009E000012CD1D0022C98D1904296DA03EB00175B
:1009F00087F80CE091E7022C8FD0BDE8F083521A03
:100A0000032A10D0042A1AD0022A35D14B78742B2D
:100A100032D10B78672B04D06C2B0CBF3C2000200C
:100A200070473E2070470B78612B25D14B786D2B9A
:100A300022D18B78702B14BF0020262070470B78B2
:100A4000612B0DD0712B17D14B78752B14D18B786E
:100A50006F2B11D1CB78742B14BF0020222070474C
:100A60004B78702B08D18B786F2B05D1CB78732BFB
:100A700014BF0020272070470020704770B50D7804
:100A80001478431993F84830162B39D014D8062B14
:100A90002DD0072B25D0052B14D10C7813789C4230
:100AA00005D18B1C961C49785278914201D00020C8
:100AB00016E032461946E2E7182B03D31B2B1FD949
:100AC0001D2B1DD0A5421FD0204490F84830012096
:100AD0001D2B05D898400D4B18420CBF012000205B
:100AE00070BDA54201F1010102F10102DFD14B1CF1
:100AF000541C097812789142D9D122461946CCE784
:100B0000561C4B1CA542D1E70120E9E7E000402F2D
:100B100010B5013B13F8010F0C4618B9531A58428F
:100B2000584110BD914203D0247801318442F1D064
:100B30000020F6E70B461A78024492F84820162A5D
:100B400014D007D8062A0DD0072A0DD0052A07D1C0
:100B50000233F0E7182A03D31B2A07D91D2A05D030
:100B6000581A70470333E6E70433E4E70133E2E75A
:100B700030B50125074C0A4613780131034493F838
:100B80004830152B03D805FA03F32342F3D110465E
:100B900030BD00BF0006200070B54FF0FF36914217
:100BA00000D370BD0C78044494F84840053C052CF3
:100BB00011D8DFE804F003080A10120C02315C6857
:100BC00001345C60EBE70331F9E70431F7E71C68B7
:100BD0005E6001341C600131F1E71C6801341C6067
:100BE0004C1CA24206D04D78054495F848500A2D79
:100BF00008BF8C1C5E602146E1E7F0B505980D68E2
:100C00001C68561B001B864209DD284485420246AB
:100C100005D210F8016D06F0C006802EF6D02846E9
:100C20002646824204D10A60521B22441A60F0BD5B
:100C300010F8017B06F8017BF3E7F0B5059F1E680D
:100C40000D68954201D0BE4202D10D601E60F0BD1C
:100C500095F800C006F1020E00EB0C0494F8484031
:100C6000062C12D0072C20D0052C49D14FEA8C1C21
:100C70000CF4F86495F801C002350CF03F0C4CEA16
:100C8000040CA6F800C07646DBE7AC78033504F028
:100C90003F0444EA0C3C15F8024CA40104F47C64C3
:100CA0004CEA040CA6F800C0EDE7BE45CDD06C7848
:100CB0004FEA8C4C24030CF4E01C04F47C3444EA2A
:100CC0000C0495F803C006F1040E0CF03F0C44EA46
:100CD0000C0495F802C004354FEA8C1C0CF47C6CB3
:100CE00044EA0C04A4F580344FEA942CC4F30904BC
:100CF0004CF4584C44F45C44A6F800C07480C2E73D
:100D00000135A6F800C0BEE7F0B5059F0D68954215
:100D100023D02C781E6860B2002814DABD1B012D88
:100D20001BDDA409751C64F03F041D6034701C6851
:100D300000F03F0060F07F00651C1D6020700868B7
:100D400001300860E2E7B74207D0681C0860186805
:100D5000441C1C602C780470D8E7F0BD70B5049D6D
:100D60000C68944202D01868A84200D170BD661C7D
:100D70000E602478861C1E600480F1E770B5049D27
:100D80000868904202D01C68AC4200D170BD441C7F
:100D90000C601C68661C1E6000782070F0E7DF287D
:100DA00005D8DC280AD2D8280AD21D207047FF288F
:100DB000FBD1FE2934BF1D2000207047082070475A
:100DC00007207047F0B5059E0D6895423ED06878C3
:100DD0002F780728D3F800C017D898B3A6EB0C04D7
:100DE000012C33DD0CF101041C60BC0964F03F04EC
:100DF00044EA80008CF800001C68601C186007F052
:100E00003F0060F07F00207027E0A0F1D804032CA1
:100E1000A6EB0C0423D9022C18DD0CF101041C6094
:100E2000040964F01F048CF80040D3F800C080006F
:100E30000CF101041C60BC0964F07F0400F03C006C
:100E40002043D7E73C06C9D4B44501D10D60F0BDBD
:100E50000CF1010018608CF800700235B5E7032C26
:100E6000F4DD840004F00C0444EA9714601C0CF1D7
:100E700001041C60841064F00F048CF80040D3F867
:100E800000E000010EF101041C60C7F3830464F06C
:100E90007F0C00F030044CEA04048EF8004095F812
:100EA00002C038014FEA9C1464F07F0400F0300067
:100EB0002043EC780235A40004F00C0420431C68A5
:100EC000671C1F6020701C68601C18600CF03F00DD
:100ED00060F07F002070C0E70868F0B5059E141A26
:100EE0001868301A20F00100844206DD12F8010C67
:100EF00000F0F800D82800D1023A0868904202D0E9
:100F00001C68B44200D1F0BD477810F8025B45EA96
:100F10000725A71C1F6025800860EEE7F0B5059E39
:100F20000D6895423ED028786F780728D3F800C026
:100F300017D898B3A6EB0C04012C33DD0CF1010497
:100F40001C60BC0964F03F0444EA80008CF8000097
:100F50001C68601C186007F03F0060F07F00207084
:100F600027E0A0F1D804032CA6EB0C0423D9022C13
:100F700018DD0CF101041C60040964F01F048CF8F6
:100F80000040D3F800C080000CF101041C60BC09D3
:100F900064F07F0400F03C002043D7E73C06C9D44E
:100FA000B44501D10D60F0BD0CF1010018608CF862
:100FB00000700235B5E7032CF4DD840004F00C0466
:100FC00044EA9714601C0CF101041C60841064F066
:100FD0000F048CF80040D3F800E000010EF101048A
:100FE0001C60C7F3830464F07F0C00F030044CEA0B
:100FF00004048EF8004095F803C038014FEA9C14B1
:1010000064F07F0400F030002043AC780235A40087
:1010100004F00C0420431C68671C1F6020701C68CF
:10102000601C18600CF03F0060F07F002070C0E78B
:101030000868F0B5059E141A1868301A20F00100EF
:10104000844206DD12F8020C00F0F800D82800D126
:10105000023A0868904202D01C68B44200D1F0BD48
:1010600007784578023045EA0725A71C1F602580D0
:101070000860EEE7914270B506460C467FD0511AE3
:10108000C80703D531F001027CD022446078217872
:1010900060B9314491F848000A2839D8DFE800F0F7
:1010A0005555383809353A50551D3200FFF777FE4F
:1010B000F2E7A51CAA4265D0E17879BBA1785D2949
:1010C0002CD1211D8A425DD0617939BB21793E291D
:1010D00024D1282006341C6070BDA51CAA4251D022
:1010E000E078A17858B9314491F84800A0F10A029B
:1010F0005042504100B1251D1D600720ECE7FFF76D
:101100004EFEF3E702341C60F7E7111B01293CDDBA
:10111000A51C03E0111B022937DDE51C95421DD0FB
:1011200068782978A0B9314491F848000A2824D871
:10113000DFE800F0141423231411171E14141400F4
:10114000111B032921DD251DE8E71C600020C3E7F2
:10115000FFF725FEEAE7511B01290EDC1D60062082
:10116000BAE7511B022901DC1D60B5E70335D5E75D
:10117000511B0329F2DD0435D0E70235CEE76FF0CD
:101180000300A9E74FF0FF30A6E76FF00100A3E7E7
:1011900091422DE9F04706460C4600F09D804F78BD
:1011A0000D789FB9411991F84800132875D012DCC9
:1011B000062800F0D980072800F0D98005286AD1D8
:1011C000121B012A67DC6FF001007DE029463846DA
:1011D000FFF7E5FDE9E7182803D01D284CD01628B5
:1011E00059D14FF00109654FDFF8988102349442DC
:1011F00072D094F801A02578BAF1000F40F09E80DB
:10120000711991F848000538182844D801A151F8FF
:1012100020F000BFC1110008691300086F13000817
:1012200097120008971200089712000897120008FA
:1012300097120008971200089712000897120008EA
:1012400097120008971200087513000897120008FB
:1012500097120008971200086513000897120008FB
:10126000651300086513000865130008651300087E
:10127000971200084713000841496809C95D05F045
:101280001F0500EBC100012101FA05F53B4951F8AA
:1012900020100D42A5D11C6015E0A51C95421BD065
:1012A000E078A17800283FD1782929D1251DAA42CC
:1012B00012D06079217948B9314491F84800183842
:1012C000012806D91D600020BDE8F087FFF767FD03
:1012D000F5E70634A24202D14FF0FF30F4E7607820
:1012E000217850B9314491F84800122822D0D2DB3D
:1012F00018380128CFD80234ECE7FFF750FDF4E7A7
:10130000314491F848001928DCD10434A242E3D0DA
:101310006078217858B9314491F84800122809D0F2
:101320001928B8D10234F1E7FFF739FDEBE7FFF7F1
:1013300036FDF3E702341C600A20C5E72946504613
:10134000FFF72DFD5FE718F80A00690901EBC001FE
:1013500005F01F0557F8210009FA05F5284001D1CD
:101360001C60B1E7023442E7121B022A2AE7121B73
:10137000032A27E702341C600920A5E76C51010805
:101380006C5601086C50010891422DE9F047064661
:101390000D4636D04F780C78A7B9011991F848005E
:1013A0000538192822D8DFE800F08B9194212F2FDF
:1013B000212121212121212121212F242124212109
:1013C0002121122F21463846FFF7E9FCE8E744497E
:1013D0006009C95D04F01F0400EBC100012101FA9E
:1013E00004F4404951F820100C4202D11D60002045
:1013F0000CE04FF001093B4FDFF8EC8002359542DD
:1014000006D14FF0FF3001E016201D60BDE8F087E7
:1014100095F801A02C78BAF1000F3BD1311991F861
:10142000480005381828E1D801A151F820F000BF84
:10143000C1140008CD140008D3140008ED130008EF
:10144000ED130008ED130008ED130008ED1300087C
:10145000ED130008ED130008ED130008ED1300086C
:10146000ED130008D9140008ED130008ED1300086F
:10147000ED130008BD140008ED130008BD140008AA
:10148000BD140008BD140008BD140008ED130008C9
:101490009F14000821465046FFF781FCC1E718F869
:1014A0000A00610901EBC00104F01F0457F8210094
:1014B00009FA04F4204001D11D60A7E702359EE738
:1014C000521B012A92DC6FF001009FE7521B022A97
:1014D000F8E7521B032AF5E702351D601C2095E74B
:1014E0006C5601086C5101086C50010870B5054636
:1014F0000C46049E9A4202D14FF0FF303EE05078F5
:10150000117868B9214491F848000D280ED8DFE819
:1015100000F01A1A0D0D0D0A0F151A0D0D0D1D1DD7
:10152000FFF73DFCF1E7991A01292BDD911C03E03F
:10153000991A022926DDD11C0A46DBE7991A0329EC
:1015400020DD111DF8E73260002017E0A84202F10B
:101550000201F1D18B4218D03160D078917870B906
:10156000214491F848001E28EED8012303FA00F028
:10157000074B0340002B0CBF00201B2070BDFFF762
:101580000EFCF0E76FF00100F8E76FF01A00F5E7E6
:10159000000E30402DE9F84307464FF00108DFF810
:1015A00068908D1C023A954201D1012017E06C78B9
:1015B0002E78B4B9B91991F8480009381A281FD8FB
:1015C00008FA00F010EA090F18D110F4083F0DD105
:1015D000C00415D594B9092E10D100201D60BDE8B6
:1015E000F88331462046FFF7DAFBE6E7002CF4D11A
:1015F000310603D5242E01D0402EEED10235D2E79C
:10160000002CF7D0E9E700BFF387E5072DE9F74F96
:10161000002701243D46BB46A04601908E1C7178F0
:1016200096F800A00091B1B90199514491F8480091
:10163000C11E1A291ED8DFE801F0781D2A131F1DCC
:1016400074747F354A1D1D1D7F1D1D1D4E2A1D2AC8
:101650001D1D1D1D2A0051460098FFF7A0FBE7E75E
:101660003CB901249542BFBF290158185E5080F84B
:101670000C8001360236D2E73CB901249542BFBF47
:10168000290158185E5080F80C800236F2E7002CD1
:10169000F0D1954204DA290158185E5080F80C8088
:1016A0000124E7E7022C08D0954203DA03EB051189
:1016B000B41C4C6007460224DCE70C2FDAD19542BB
:1016C000BCBF03EB05118E6001350024D2E7022C6C
:1016D000EAD10D2FF2E7012CF7D0022CCAD19542A6
:1016E000C8DA03EB051999F80C100029C2D0D9F813
:1016F0000410B1420FD0009969B9BAF1200F0AD194
:10170000F078B17850B9202905D00198014491F8BA
:1017100048008742AED189F80CB0ABE7FFF73FFB3A
:10172000F7E7012CD1D0022CA4D19542A2DA03EB29
:10173000051181F80CB09DE7022C9BD0284603B020
:10174000BDE8F08F0223521A92FBF3F2032A16D05F
:10175000042A29D09A4252D1C87800284FD18B78D8
:10176000742B4FD14B78002B4CD10B78672B04D0C6
:101770006C2B0CBF3C20002070473E2070474B78FC
:10178000002B3CD10A78612A3BD1C878002838D197
:101790008B786D2B36D14B79002B33D10B79702B95
:1017A00014BF002026207047487840BB0B78612B7F
:1017B00013D0712B26D1CB7823BB8A78752A20D100
:1017C0004879F0B90B796F2B1CD1CB79BBB98B79E8
:1017D000742B14BF002022207047CB7893B98A78ED
:1017E000702A0ED1487960B90B796F2B0AD1CB7969
:1017F00043B98B79732B14BF00202720704700203A
:10180000704718467047000070B504464E780B4686
:101810000D78D6B9611991F84800162811783FD093
:1018200018DC062833D007282BD0052818D11878C3
:101830001178884205D15D78991C5378901C9D429F
:1018400001D000201CE00246E0E729463046FFF7C1
:10185000A6FAE2E7182803DB1B2821DD1D281FD08C
:10186000507820BB214491F848001D284FF0010317
:1018700020D803FA00F0104B18420CBF01200020C2
:1018800070BDA94203F1010302F10102D9D11D7813
:10189000591C1378501C9D42D3D102460B46C6E713
:1018A000A942CED1991C5378901CB342C8E7FFF7E8
:1018B00076FADAE71846E3E7E000402F30B5013B5F
:1018C00013F8014F1CB98B1A5842584130BD914250
:1018D00006D0487820B90D78A542F7D10231EFE75C
:1018E0000020F3E710B50A4604460B4658781978ED
:1018F00068B9214491F84800162815D00ADC06285A
:101900000ED007280ED005280ED0981A10BDFFF76C
:1019100046FAF1E71828F8DB1B2805DD1D28F3E758
:101920000333E3E70433E1E70233DFE738B5024688
:101930000B460124094D5878197850B9114491F893
:101940004800152808D804FA00F0284204D00233D1
:10195000F1E7FFF724FAF4E7184638BD0006200047
:10196000F8B505460C464FF0FF36944200D3F8BD5B
:101970006078217850B9294491F848000538052845
:1019800012D8DFE800F011060B11130DFFF707FA6C
:10199000F4E70334596801315960E6E70434F9E7A4
:1019A00019685E60013119600234F3E71968A71CF9
:1019B0000131BA4219600BD0E078A17858B92944B6
:1019C00091F84800A0F10A014842484100B1271DA2
:1019D0005E603C46DEE7FFF7E2F9F3E7914270B55F
:1019E00006460C467FD0511AC80703D531F00102D4
:1019F0007CD022442078617860B9314491F8480065
:101A00000A2839D8DFE800F05555383809353A50FA
:101A1000551D3200FFF7C3F9F2E7A51CAA4265D0B5
:101A2000A17879BBE1785D292CD1211D8A425DD056
:101A3000217939BB61793E2924D1282006341C60E4
:101A400070BDA51CAA4251D0A078E17858B93144A4
:101A500091F84800A0F10A025042504100B1251D02
:101A60001D600720ECE7FFF79AF9F3E702341C60EA
:101A7000F7E7111B01293CDDA51C03E0111B02291E
:101A800037DDE51C95421DD028786978A0B931442E
:101A900091F848000A2824D8DFE800F01414232322
:101AA0001411171E14141400111B032921DD251D08
:101AB000E8E71C600020C3E7FFF771F9EAE7511B74
:101AC00001290EDC1D600620BAE7511B022901DC4A
:101AD0001D60B5E70335D5E7511B0329F2DD043559
:101AE000D0E70235CEE76FF00300A9E74FF0FF30F3
:101AF000A6E76FF00100A3E791422DE9F047064603
:101B00000C4600F09D800F784D789FB9411991F8EF
:101B10004800132875D012DC062800F0D980072869
:101B200000F0D98005286AD1121B012A67DC6FF00A
:101B300001007DE029463846FFF731F9E9E718282A
:101B400003D01D284CD0162859D14FF00109654FFC
:101B5000DFF898810234944272D094F800A065783E
:101B6000BAF1000F40F09E80711991F848000538D5
:101B7000182844D801A151F820F000BF291B000803
:101B8000D11C0008D71C0008FF1B0008FF1B000821
:101B9000FF1B0008FF1B0008FF1B0008FF1B0008BD
:101BA000FF1B0008FF1B0008FF1B0008FF1B0008AD
:101BB000DD1C0008FF1B0008FF1B0008FF1B0008BE
:101BC000CD1C0008FF1B0008CD1C0008CD1C000820
:101BD000CD1C0008CD1C0008FF1B0008AF1C00082E
:101BE00041496809C95D05F01F0500EBC1000121ED
:101BF00001FA05F53B4951F820100D42A5D11C60B2
:101C000015E0A51C95421BD0A078E17800283FD1B3
:101C1000782929D1251DAA4212D02079617948B9A5
:101C2000314491F848001838012806D91D60002079
:101C3000BDE8F087FFF7B3F8F5E70634A24202D11A
:101C40004FF0FF30F4E72078617850B9314491F8D3
:101C50004800122822D0D2DB18380128CFD802340D
:101C6000ECE7FFF79CF8F4E7314491F848001928B5
:101C7000DCD10434A242E3D02078617858B93144F1
:101C800091F84800122809D01928B8D10234F1E798
:101C9000FFF785F8EBE7FFF782F8F3E702341C6003
:101CA0000A20C5E729465046FFF779F85FE718F89C
:101CB0000A00690901EBC00105F01F0557F8210072
:101CC00009FA05F5284001D11C60B1E7023442E76A
:101CD000121B022A2AE7121B032A27E702341C6080
:101CE0000920A5E76C5101086C5601086C500108E9
:101CF00091422DE9F04706460D4636D00F784C78D4
:101D0000A7B9011991F848000538192822D8DFE849
:101D100000F08B9194212F2F21212121212121219C
:101D200021212F24212421212121122F214638462F
:101D3000FFF735F8E8E744496009C95D04F01F047E
:101D400000EBC100012101FA04F4404951F82010D0
:101D50000C4202D11D6000200CE04FF001093B4F06
:101D6000DFF8EC800235954206D14FF0FF3001E0FC
:101D700016201D60BDE8F08795F800A06C78BAF1D8
:101D8000000F3BD1311991F8480005381828E1D8E7
:101D900001A151F820F000BF291E0008351E0008DF
:101DA0003B1E0008551D0008551D0008551D000864
:101DB000551D0008551D0008551D0008551D00083B
:101DC000551D0008551D0008551D0008411E00083E
:101DD000551D0008551D0008551D0008251E00084A
:101DE000551D0008251E0008251E0008251E000898
:101DF000251E0008551D0008071E000821465046F4
:101E0000FEF7CDFFC1E718F80A00610901EBC00138
:101E100004F01F0457F8210009FA04F4204001D10E
:101E20001D60A7E702359EE7521B012A92DC6FF086
:101E300001009FE7521B022AF8E7521B032AF5E72D
:101E400002351D601C2095E76C5601086C51010895
:101E50006C50010870B505460C46049E9A4202D1AA
:101E60004FF0FF303EE01078517868B9214491F886
:101E700048000D280ED8DFE800F01A1A0D0D0D0AE3
:101E80000F151A0D0D0D1D1DFEF789FFF1E7991AAB
:101E900001292BDD911C03E0991A022926DDD11CB2
:101EA0000A46DBE7991A032920DD111DF8E73260A5
:101EB000002017E0A84202F10201F1D18B4218D0B4
:101EC00031609078D17870B9214491F848001E288B
:101ED000EED8012303FA00F0074B0340002B0CBFA0
:101EE00000201B2070BDFEF75AFFF0E76FF00100E5
:101EF000F8E76FF01A00F5E7000E30402DE9F843DF
:101F000007464FF00108DFF868908D1C023A9542B1
:101F100001D1012017E02C786E78B4B9B91991F885
:101F2000480009381A281FD808FA00F010EA090FEB
:101F300018D110F4083F0DD1C00415D594B9092E5D
:101F400010D100201D60BDE8F88331462046FEF721
:101F500026FFE6E7002CF4D1310603D5242E01D06C
:101F6000402EEED10235D2E7002CF7D0E9E700BFD2
:101F7000F387E5072DE9F74F002701243D46BB46CF
:101F8000A04601908E1C317896F801A00091B1B95D
:101F90000199514491F84800C11E1A291ED8DFE862
:101FA00001F0781D2A131F1D74747F354A1D1D1DF5
:101FB0007F1D1D1D4E2A1D2A1D1D1D1D2A00514657
:101FC0000098FEF7ECFEE7E73CB901249542BFBF5D
:101FD000290158185E5080F80C8001360236D2E78D
:101FE0003CB901249542BFBF290158185E5080F8C2
:101FF0000C800236F2E7002CF0D1954204DA290178
:1020000058185E5080F80C800124E7E7022C08D0B5
:10201000954203DA03EB0511B41C4C600746022419
:10202000DCE70C2FDAD19542BCBF03EB05118E60C3
:1020300001350024D2E7022CEAD10D2FF2E7012C62
:10204000F7D0022CCAD19542C8DA03EB051999F8EA
:102050000C100029C2D0D9F80410B1420FD0009959
:1020600069B9BAF1200F0AD1B078F17850B92029B6
:1020700005D00198014491F848008742AED189F813
:102080000CB0ABE7FEF78BFEF7E7012CD1D0022CAA
:10209000A4D19542A2DA03EB051181F80CB09DE7BB
:1020A000022C9BD0284603B0BDE8F08F0223521AC1
:1020B00092FBF3F2032A16D0042A29D09A4252D175
:1020C000887800284FD1CB78742B4FD10B78002B18
:1020D0004CD14B78672B04D06C2B0CBF3C200020DC
:1020E00070473E2070470B78002B3CD14A78612A1C
:1020F0003BD18878002838D1CB786D2B36D10B793D
:10210000002B33D14B79702B14BF00202620704751
:10211000087840BB4B78612B13D0712B26D18B787C
:1021200023BBCA78752A20D10879F0B94B796F2B77
:102130001CD18B79BBB9CB79742B14BF0020222022
:1021400070478B7893B9CA78702A0ED1087960B934
:102150004B796F2B0AD18B7943B9CB79732B14BF91
:102160000020272070470020704718467047000065
:1021700070B504460D780B464E78D5B9A11991F883
:1021800048101629107840D019DC062934D00729C8
:102190002CD0052919D118781178884205D15D789D
:1021A000991C5378901C9D4201D000201DE00246EE
:1021B000E0E731462846FEF7F2FD0146E1E718293F
:1021C00003DB1B2921DD1D291FD0517820BB0C44C6
:1021D00094F848001D284FF0010320D803FA00F0BE
:1021E000104B18420CBF0120002070BD854203F146
:1021F000010302F10102D8D11D78591C1378501C3B
:102200009D42D2D102460B46C5E78542CDD1991CED
:102210005378901CB342C7E7FEF7C1FDDAE71846D2
:10222000E3E700BFE000402F30B5013B13F8014F5A
:102230001CB98B1A5842584130BD914206D00878DB
:1022400020B94D78A542F7D10231EFE70020F3E73E
:1022500010B50A4604460B461878597868B92144E7
:1022600091F84800162815D00ADC06280ED0072859
:102270000ED005280ED0981A10BDFEF790FDF1E79C
:102280001828F8DB1B2805DD1D28F3E70333E3E7F7
:102290000433E1E70233DFE738B502460B46012499
:1022A000094D1878597850B9114491F8480015280B
:1022B00008D804FA00F0284204D00233F1E7FEF710
:1022C0006EFDF4E7184638BD00062000F8B5054657
:1022D0000C464FF0FF36944200D3F8BD2078617869
:1022E00050B9294491F848000538052812D8DFE88C
:1022F00000F011060B11130DFEF751FDF4E7033446
:10230000596801315960E6E70434F9E719685E60FD
:10231000013119600234F3E71968A71C0131BA4290
:1023200019600BD0A078E17858B9294491F8480099
:10233000A0F10A014842484100B1271D5E603C46B9
:10234000DEE7FEF72CFDF3E710B510F8013B11F8BE
:10235000012BA3F16104192C98BF203BA2F1610469
:1023600098BFDBB2192C9CBF203AD2B2934203D162
:10237000002BEAD1012010BD0020FCE70148FEF748
:102380000BBC00BF6C57010830B587B006AB03919A
:1023900004AC0DF1110143F8044D0091856B03A9C4
:1023A000A847059BA3420CBF4FF0FF309DF81000DB
:1023B00007B030BD0938172807D8012383400448E7
:1023C0001840003018BF012070470020704700BF40
:1023D000130080000312DF2B03DCD82B15DA1BB1AE
:1023E0007047FF2B09D07047094B034493F84830DE
:1023F000002B08BF4FF0FF307047A0F57F43FE3B36
:10240000012B98BF4FF0FF3070474FF0FF307047FF
:10241000944D010810B48B78782B0DD000200A223F
:10242000174C013111F8013F3B2B0CD0303B02FB24
:102430000030A042F6DD12E00020114A023111F80E
:10244000013F3B2B02D110BCFFF7C4BF462B0AD87B
:10245000412B11D2303B092B0BD99042EFDD4FF0CD
:10246000FF3010BC7047A3F16104052CF5D8573B31
:1024700003E043EA0010F0E7373B03EB0010ECE722
:10248000FFFF100010B4087900283CD14B79782B5D
:1024900039D11F4A083111F8023C6BB911F8013CDF
:1024A0003B2B02D110BCFFF795BF462B0CD8412B1C
:1024B00013D2303B092B0DD9904201F10201EADD24
:1024C0004FF0FF3010BC7047A3F16104052CF3D826
:1024D000573B03E043EA0010EEE7373B03EB001005
:1024E000EAE74FF0FF33303B02FB0030A04201F13E
:1024F0000201E5DC11F8023C002BF2D111F8013C9D
:102500003B2BF0D1CEE7063100200A22004CF1E748
:10251000FFFF100010B4487900283CD10B79782BCC
:1025200039D11F4A083111F8013C6BB911F8023C4E
:102530003B2B02D110BCFFF74DBF462B0CD8412BD3
:1025400013D2303B092B0DD9904201F10201EADD93
:102550004FF0FF3010BC7047A3F16104052CF3D895
:10256000573B03E043EA0010EEE7373B03EB001074
:10257000EAE74FF0FF33303B02FB0030A04201F1AD
:102580000201E5DC11F8013C002BF2D111F8023C0C
:102590003B2BF0D1CEE7063100200A22004CF1E7B8
:1025A000FFFF100008B5D0F86C31D0F870019847E3
:1025B000030C1B047BB9094A0312D35CC0F342121B
:1025C00002EBC30200F01F0301209840044B53F8B4
:1025D0002230184008BD0020FCE700BF6C50010805
:1025E0006C51010808B5D0F86C31D0F870019847EB
:1025F000030C1B047BB9094A0312D35CC0F34212DB
:1026000002EBC30200F01F0301209840044B53F873
:102610002230184008BD0020FCE700BF6C560108BE
:102620006C51010808B5D0F86C31D0F870019847AA
:10263000030C1B041BB9FFF7CDFEC00F08BD012022
:10264000FCE72DE9F04104460E4617469846069DE4
:102650003168B94203D0D8F80030AB4201D1BDE8AF
:10266000F0810B7804EB4303B3F87401A0B9D4F8FC
:102670006C21D4F870019047316880B20B78234404
:1026800093F84830033B1944D8F8003031609A1C65
:10269000C8F800201880DBE70131F5E70B78C12B83
:1026A00009D94878020606D500F0C000A0F1C003A1
:1026B00058425841704701207047CB781A0620D500
:1026C00003F0C003C02B1CD08B78180619D503F07B
:1026D000C003C02B15D00B784878F02B08D18F2879
:1026E0000FD900F0C000A0F1C00358425841704714
:1026F000020606D5F42BF4D18F2894BF00200120C8
:10270000704701207047F8B5054616461F464C1C19
:10271000B44202D14FF0FF302AE02178294491F8E9
:102720004810062928D005D801291FD9052914D019
:10273000611C1FE0082919D02AD31B29F8D1611C7C
:102740008E42E7D063782D2B14D1A11C8E42E1D0AC
:10275000A3783E2B28D0396009E0331B012B27DDFD
:10276000D5F8603121462846984710B13C600020DA
:10277000F8BDA11C0C46CBE7331B022B18DDD5F8A6
:1027800064312146284698470028EFD1E11CF1E743
:10279000331B032B0CDDD5F86831214628469847BA
:1027A0000028E3D1211DE5E703343C600D20DFE77D
:1027B0006FF00100DCE70B23091A0329136004D131
:1027C0000378582B03D0782B10D0012070470123B9
:1027D00041784D290CD06D29F7D181784C2909D049
:1027E0006C29F2D133B90C231360EEE70023EFE735
:1027F0000123F2E70020704791422DE9F34105469D
:10280000884617461E4604D14FF0FF3002B0BDE89F
:10281000F0810B78034493F84830072B3FD007D85A
:10282000052B23D0062B2FD0C6F800800020EDE723
:10283000162B01D0182BF7D108F10104BC42E3D0CC
:1028400023782B4493F84830053B182B7DD8DFE8DC
:1028500003F033404C7C58587C7C7C7CA77C7C7C8F
:102860007C7C58317C313131317C7C00531A012B16
:1028700002DC6FF00100C9E7D0F854319847002816
:10288000D2D008F10204D9E7531A022BF1DDD0F8B7
:10289000583198470028C7D008F10304CEE7531AEF
:1028A000032BE6DDD0F85C3198470028BCD008F156
:1028B0000404C3E70134C1E73B1B012BD9DDD5F884
:1028C000483121462846984708B934609EE70234CB
:1028D000B4E73B1B022BCCDDD5F84C312146284612
:1028E00098470028F1D00334A8E73B1B032BC0DD39
:1028F000D5F850312146284698470028E5D00434C1
:102900009CE701AA21464046FFF755FF0028DCD08E
:102910000134BC423FF478AF23782B4493F848301D
:102920000F2B3BD8DFE803F011113A3A3A08162290
:10293000113A3A3A3A3A3A2F3B1B012B99DDD5F836
:10294000603121462846984708B134606EE7A31CE1
:102950001C46DEE73B1B022B8BDDD5F8643121469C
:10296000284698470028F0D1E31CF1E73B1B032BD6
:102970007FF77FAFD5F86831214628469847002871
:10298000E3D1231DE4E7631C9F423FF43DAF62782F
:102990003E2ADDD102343460019837E7631CD7E763
:1029A00001AA21464046FFF706FF00288DD0631C90
:1029B0009F423FF429AF62783E2AEBD01C46C4E721
:1029C00091422DE9F34705460C4617461E4600F096
:1029D00073840B78034493F848300A2B00F2258463
:1029E000DFE813F0060406040B00C603DD03FE0354
:1029F0000B0417040604CC03DA0301F10108B845FF
:102A000004D14FF0FF3002B0BDE8F0874B780344AB
:102A100093F84830053B182B00F2AD80DFE813F047
:102A200019002A003600AB00AB00AB00AB00AB00D6
:102A3000AB00AB00950066009B00AB00AB00AB00A9
:102A4000AB006C01AB006C01AB00AB00AB00AB00AA
:102A5000AB00A7EB0803012B02DC6FF00100D2E70B
:102A6000D0F8543141469847002840F05281C6F8CA
:102A70000080C8E7A7EB0803022BEEDDD0F8583141
:102A8000414698470028F2D004340AE0A7EB080337
:102A9000032BE2DDD0F85C31414698470028E6D0B0
:102AA0000534A742ADD023782B4493F84830053B3A
:102AB000182B00F29D83DFE813F0140121012E0191
:102AC0009B033B013B014B039B039B039B039B032A
:102AD0009B034F039B039B039B033B0112019B033F
:102AE00012011201120112019B039B038A1C9742DF
:102AF00087D08B78034493F84830142B10D01B2BCD
:102B00001BD103318F423FF47CAFE3782D2B02D0F1
:102B10003160002077E733463A46FFF7F4FD72E76D
:102B200003343F1B052F7FF76CAF0023A3492246D8
:102B3000585C15780134854201D03260E9E70133F1
:102B4000062BF4D1346008205DE733463A46023163
:102B5000FFF752FE57E701F1020847453FF451AF36
:102B60008B78034493F84830072B50D006D8052BB8
:102B70000CD0062B18D0C6F80080CAE7182B03D05B
:102B80001D2BF8D0162BF6D103341AE0A7EB08035F
:102B9000012B7FF762AFD0F85431414698470028A7
:102BA0003FF465AF04340CE0A7EB0803022B7FF77A
:102BB00054AFD0F858314146984700283FF457AFFA
:102BC0000534A7423FF41DAF23782B4493F84830D7
:102BD000053B182B00F20C83DFE813F029003700C7
:102BE00043000A034F004F007E000A030A030A0352
:102BF0000A030A030A030A030A030A034F00270011
:102C00000A0327002700270027000A030A03A7EB6F
:102C10000803032B7FF721AFD0F85C31414698477A
:102C200000283FF424AF0634CBE70134C9E73B1B4F
:102C3000012B7FF712AFD5F8483121462846984737
:102C400008B93460DFE60234BBE73B1B022B7FF799
:102C500004AFD5F84C31214628469847002893D137
:102C6000EFE73B1B032B7FF7F8AED5F85031214639
:102C700028469847002895D1E3E70134A742234628
:102C80003FF4BFAE1A7801342A4492F84820093A3A
:102C90000C2A00F2958101A151F822F07D2C000848
:102CA0007D2C0008D12C0008C12F0008C12F00087E
:102CB000C12F0008C12F0008C12F0008C12F000834
:102CC000C12F0008C12F0008C12F00087D2C00086B
:102CD00001333360052096E601343460FAE70134AD
:102CE000DFE63B1B012B7FF7B8AED5F84831214614
:102CF000284698470028A4D00234D2E63B1B022B7A
:102D00007FF7ABAED5F84C312146284698470028CE
:102D100097D00334C5E63B1B032B7FF79EAED5F857
:102D2000503121462846984700287FF4ADAE88E709
:102D300004F10108B84544463FF463AE98F800300A
:102D400008F101012B4493F84830053B182B3FF65E
:102D500012AF01A252F823F0C12D00086D2E000819
:102D60008D2E0008772B00084D3100084D310008EA
:102D700051310008772B0008772B0008772B0008CB
:102D8000772B0008772B000859310008772B0008B3
:102D9000772B0008772B00084D310008DF2D000845
:102DA000772B0008DF2D0008772B0008772B000811
:102DB000772B0008772B0008772B0008C048010804
:102DC000A7EB0803012B7FF748AED5F854314146F5
:102DD0002846984700283FF44AAE08F102014FF018
:102DE0000108DFF8EC94019101998F423FF409AE9C
:102DF0000B782B4493F84830053B182B3FF688AEF0
:102E000001A252F823F000BFB32E0008D12E000813
:102E1000ED2E0008112B0008092F0008092F0008CB
:102E2000112B0008112B0008112B0008332F00086C
:102E3000112B0008112B0008112B0008112B000882
:102E4000112B0008112B0008092F0008AD2E0008D7
:102E5000112B0008AD2E0008AD2E0008AD2E000885
:102E6000AD2E0008112B0008112B0008A7EB08035A
:102E7000022B7FF7F2ADD5F85831414628469847E6
:102E800000283FF4F4AD08F10301A8E7A7EB08031D
:102E9000032B7FF7E2ADD5F85C31414628469847D1
:102EA00000283FF4E4AD08F1040198E701310191F5
:102EB0009AE77B1A012B7FF7D0ADD5F84831284629
:102EC0009847019B002800F0A580023301938BE70F
:102ED0007B1A022B7FF7C1ADD5F84C3128469847B5
:102EE000019B002800F096800333EFE77B1A032B49
:102EF0007FF7B3ADD5F8503128469847019B00289D
:102F000000F088800433E1E7019B5A1C974201924C
:102F10003FF477AD5B782B4493F848300E2B08D004
:102F2000152B3FF60AAE08FA03F313EA090FEBD1AB
:102F300003E6019B5A1C974201923FF462AD597817
:102F4000294491F84840A4F10C01012908D9152C15
:102F50003FF6F3AD08FA04F414EA090FE9D1ECE501
:102F600002330DF1080A4AF8043D01998F423FF4FB
:102F700048AD0B782B4493F848309C424FD0082B37
:102F80004AD801A252F823F0112B0008112B000897
:102F9000112B0008FF2F000819300008AD2F000882
:102FA000CB2F0008E52F0008112B00087B1A012BFE
:102FB0007FF753ADD5F8603128469847019B08B19B
:102FC0003360A6E502330193CFE77B1A022B7FF72C
:102FD00044ADD5F8643128469847019B0028EFD1CD
:102FE0000333F0E77B1A032B7FF737ADD5F8683151
:102FF00028469847019B0028E2D10433E3E7534673
:103000003A4601312846FDF739FA0028ADDC7FF455
:10301000FAAC019B3360F6E401310191A5E74A1C4B
:10302000974201923FF4EDAC4B782B4493F8483033
:10303000093B0C2B3FF681AD01A151F823F000BFF5
:103040007530000875300008273100083B2B000858
:103050003B2B00083B2B00083B2B00083B2B0008B8
:10306000313100083B2B00083B2B00083B2B0008AC
:1030700075300008019B591C8F4201913FF4C1AC8F
:103080005A782A4492F84820053A182A3FF640AD6B
:1030900001A050F822F000BFFD3000080B310008FD
:1030A00019310008112B0008753000087530000830
:1030B00027310008112B0008112B0008112B0008E4
:1030C000112B0008112B000831310008112B0008CA
:1030D000112B0008112B000875300008CB2E0008BA
:1030E000112B0008CB2E0008112B0008112B000813
:1030F000112B0008112B0008112B00087B1A012B43
:103100007FF7ABACD5F85431D9E67B1A022B7FF7A9
:10311000A4ACD5F85831E1E67B1A032B7FF79DACC0
:10312000D5F85C31E8E6019B0120013333606AE4A5
:10313000019B5A1C974201923FF463AC59783E2997
:103140007FF4FBAC0233336003205CE48846F1E596
:1031500001343460022056E4631C9F423FF451ACBA
:1031600062783E2A7FF42CAF0234346004204AE4B3
:1031700033463A460131FDF781F944E44B1C9F4246
:1031800000F09E804A78154495F848200A2A08BF26
:103190008B1C3360072036E401343460FAE701F118
:1031A0000108474500F090804B785D2B07D18B1CC0
:1031B0009F4200F089808A783E2A3FF401AFB845EB
:1031C0003AD098F800302B4493F848300A2B70D846
:1031D000DFE803F0323232325E2E425032323200B9
:1031E0007B1A012B7FF739ACD0F86031984708B1D2
:1031F00034608EE404F10208E1E77B1A022B7FF7CA
:103200002CACD0F8643198470028F1D104F10308C0
:10321000D5E77B1A032B7FF720ACD0F868319847AD
:103220000028E5D104F10408C9E701F10108C6E767
:10323000A7EB0803012B04DCC6F800800620FFF78B
:10324000E2BBD5F860314146284698470028F3D1C3
:1032500008F102039846B2E7A7EB0803022BEBDD67
:10326000D5F864314146284698470028E4D108F152
:103270000303EFE7A7EB0803032BDDDDD5F8683187
:103280004146284698470028D6D108F10403E1E7D3
:1032900008F10103BB42CFD098F801205D2AD9D1B3
:1032A00008F10202BA42C7D098F802103E29D1D1E3
:1032B00043E408F10103CDE76FF00300FFF7A3BB80
:1032C0006FF00200FFF79FBB6FF00400FFF79BBB9E
:1032D00000062000914230B445D00C4625780544C4
:1032E00095F84850023D132D3BD8DFE805F019133F
:1032F0003A0A0F113A231D3A3A3A3A3A3A3A3A3AE6
:103300003A310234A242E9D11A6028E00334F9E7E5
:103310000434F7E7A14221D130BC0131FDF7AEB84A
:1033200000201C6030BC7047A14217D101311960E8
:103330000720F7E7A14211D14C1CA24216D04A78CF
:10334000104490F848200A2A08BF8C1C1C60EFE744
:10335000A14203D1013119602720E3E71C60062058
:10336000E0E70134CEE76FF00300DBE76FF0020027
:10337000D8E7914270B544D00C462578054495F8BD
:103380004850072D22D006D8052D18D01CD8032D63
:103390001ED0013414E00A2D2AD01E2D1FD0092D75
:1033A000F7D1A1422AD14C1CA2422DD04A78104418
:1033B00090F848200A2A08BF8C1C1C601CE00234CC
:1033C000A242DAD11A601AE00334F9E70434F7E7CD
:1033D000A14213D1BDE870400131FDF74FB8A142C1
:1033E0000CD10131FDF72EF9162808BF002070BD61
:1033F000A14203D1013119600720F8E71C600620C3
:10340000F5E76FF00300F2E76FF00200EFE738B581
:1034100005468C1C944202D14FF0FF303DE06078AD
:10342000217868B9294491F84800062828D00ADC98
:10343000002803DB01282EDD05281BD0A11C23E07A
:10344000FDF7ADFCF1E7082825D01FDB1B28F5D1DF
:10345000A11C8A42E0D0E078B0B9A0782D2813D121
:10346000211D8A42D8D0627912B922793E2A15D01C
:10347000196011E0111B0129E0DC6FF001000CE084
:10348000111B0229F9DDE11C0C46C3E7111B0329BE
:10349000F3DD211DF8E71C60002038BD06341C60F8
:1034A0000D20FAE703460B20C91A0629106006D141
:1034B000597821B91878582803D0782802D00120EB
:1034C00070470121D8780028F9D198784D280ED07E
:1034D0006D28F4D158790028F1D11B794C2BEFD00D
:1034E0006C2BECD10029EBD10C231360E7E7012111
:1034F000F0E7000091422DE9F74F80460F46154650
:103500001E4604D14FF0FF3003B0BDE8F08F4A787B
:103510000B7862B9C11891F84800072850D00BDC2D
:10352000052844D0062848D037600020ECE719462B
:103530001046FDF734FCF0E7182803D01D2826D0EC
:103540001628F1D14FF0010A654BDFF89C91BC1CA5
:10355000AC42D7D094F801B02278BBF1000F32D141
:1035600008EB020191F848000538182800F2B580F0
:10357000DFE800F03F4447B34A4AB3B3B3B3A1B363
:10358000B3B3B3B34A3DB33D3D3D3DB32E005549C2
:103590008A5C590901EBC201012203F01F0302FA00
:1035A00003F34F4A52F821201342CBD1BCE7ED1B65
:1035B000012DB9DC6FF00100A6E7ED1B022DF8E745
:1035C000ED1B032DF5E711465846FDF7E8FBCBE769
:1035D00019F80B00510901EBC00102F01F0253F86A
:1035E00021000AFA02F2104001D134608CE7023463
:1035F000AEE72D1B012DDDDD346096E72D1B022D7E
:10360000F9E72D1B032DF6E701AA21463846FFF7FF
:1036100049FF0028E9D00234AC423FF473AF607830
:10362000217838BB414491F848000F2828D801A3DD
:1036300053F820F0F9350008F93500088136000804
:1036400081360008813600087B3600088536000880
:1036500091360008F93500088136000881360008E7
:10366000813600088136000881360008813600085E
:103670009B360008FDF793FBD7E72B1B012B99DD49
:10368000A31C03E02B1B022B94DDE31C1C46C3E7A9
:103690002B1B032B8EDD231DF8E7A31C9D423FF45B
:1036A00031AFE278002AF1D1A2783E2AEED104347B
:1036B0003460019828E701AA21463846FFF7F2FE58
:1036C000002892D0A31C9D423FF41CAFE27812B9AF
:1036D000A2783E2AEBD0336027E72346FBE700BF02
:1036E0006C5101086C5601086C50010891422DE99B
:1036F000F74F07460C4615461E4600F04784531AFE
:10370000D90709D533F0010505D14FF0FF3318462D
:1037100003B0BDE8F08F25446078217890B9394432
:1037200091F848300A2B00F2E483DFE813F09101AE
:1037300091010F00AD03CC03DE03E403FB03910111
:10374000B403C903FDF72BFB0346EBE7A21CAA4217
:10375000DBD094F8039094F80280B9F1000F21D1E6
:1037600007EB080191F848000538182831D8DFE840
:1037700010F06400C400040330003000300030005A
:10378000300030003000A7006A00AE00300030008A
:1037900030003000320030003200300030003000A5
:1037A00030001E0041464846FDF7F9FADCE7AD4916
:1037B0004FEA581011F80910DFF8B0C200EBC10051
:1037C000012108F01F085CF8200001FA08F101400F
:1037D00001D132604FE04FF0010ADFF89082DFF84C
:1037E00090920434A54290D094F801B02278BBF1B5
:1037F000000F40F01B81B91891F8480005381828CF
:1038000000F22681DFE810F0DC02E102E40224018C
:10381000E702E7022E0324012401240124012401EC
:103820003003240124012401E7022601240126019A
:1038300026012601260124011701AD1A012DC8DC3D
:103840006FF0010363E7231D9D423FF45EAF607993
:10385000217990B9394491F84800142817D01B28D1
:1038600024D1A11D8D423FF450AFE37913B9A37960
:103870002D2B05D03160002349E7FDF790FAECE7E6
:1038800033462A463846FFF7C2FD03463FE7063473
:103890002D1B0B2D7FF739AF234600227249587834
:1038A00020B914F81250505C854201D03360E2E731
:1038B0000132062A03F10203F1D13360082326E71F
:1038C00033462A46211D3846FFF714FEDDE7221D48
:1038D00095423FF41AAF94F805802379B8F1000FB0
:1038E0000ED1F91891F84800072800F046820CDC48
:1038F0000528A2D006287FF46CAFAD1A022D9EE7F2
:1039000019464046FDF74BFAEEE7182804D01D286B
:1039100033D016287FF45DAF4FF00109534ADFF82A
:1039200050810634A5423FF4F0AE94F801A023780C
:10393000BAF1000F32D1F91891F84800053818286B
:1039400000F28680DFE810F03C024102440284006D
:10395000430043006E0084008400840084008400DF
:10396000840084008400840043003E0084003E0004
:103970003E003E003E0084002F003A49580911F8ED
:10398000081000EBC10003F01F0101238B403749F1
:1039900051F820100B40BFD13260B8E619465046AE
:1039A000FDF7FDF9CAE718F80A00590901EBC00153
:1039B00003F01F0352F8211009FA03F30B4001D161
:1039C0003460A4E60234ADE7FDF7E9F90AE0023419
:1039D000A5423FF49AAE607821780028F4D13944AA
:1039E00091F8480009380C2832D801A353F820F088
:1039F000CF390008CF390008253A0008513A0008AD
:103A0000513A0008513A0008513A0008513A00086A
:103A1000513A0008513A0008513A0008513A00085A
:103A2000CF39000802343460052370E61146584649
:103A3000FDF7B5F9E2E619F80B00510901EBC001F9
:103A400002F01F0258F821100AFA02F20A4001D1CE
:103A5000346010E70234C5E611464046FDF79FF991
:103A6000C7E100BF6C560108C04801086C5101084D
:103A70006C500108C54B510913F8083002F01F02C1
:103A800001EBC30101239340C14A52F821201340A6
:103A900096D00234DFF80093DFF8F4A20194019A83
:103AA00095423FF432AE54781378DCBBF91891F8A4
:103AB0004800053818283FF68CAE01A151F820F0D7
:103AC0003B380008FB3800087B3D0008D33700086E
:103AD0002F3B00082F3B0008D3370008D3370008DE
:103AE000D3370008873B0008D3370008D3370008D6
:103AF000D3370008D3370008D3370008D33700087E
:103B00002F3B00087B3B0008D33700087B3B0008B5
:103B10007B3B00087B3B00087B3B0008D337000859
:103B20005F3B000819462046FDF739F9C1E701223D
:103B300001998B1C9D4201933FF4E7ADC8788978C9
:103B4000F0B9394491F848000E281CD015283FF6EA
:103B5000ADAE02FA00F010EA090FE9D1A6E68D49F0
:103B60005809095D00EBC10003F01F0101238B40E0
:103B70005AF820100B403FF40FAF023201928EE74B
:103B8000FDF70DF9E0E74FF00108019B9A1C954203
:103B900001923FF4BAADD878997878B9394491F860
:103BA0004840A4F10C0101290CD9152C3FF611AEA7
:103BB00008FA04F414EA090FE7D10AE6FDF7EFF872
:103BC0000446EEE704330DF1080848F8043DDDF83B
:103BD00004B05D453FF499AD9BF801009BF80010DF
:103BE00068B9394491F84800844234D008280ED886
:103BF000DFE800F02E2E2E210D0810192E00FDF703
:103C0000CEF8F1E7A5EB0B03012B7FF719AE0BF113
:103C1000020306E0A5EB0B03022B7FF711AE0BF1BD
:103C200003030193D3E7A5EB0B03032B7FF708AE48
:103C30000BF10403F5E743462A460BF1020138462F
:103C4000FDF7A6FA031EC2DC7FF461AD019AA3E67C
:103C5000C6F800B00FE60BF102039D4201933FF45A
:103C600054AD9BF803009BF8021018BB394491F83F
:103C7000480009380C283FF619AE01A252F820F08E
:103C8000BB3C0008BB3C0008813D0008AD38000883
:103C9000AD380008AD380008AD380008AD38000870
:103CA0009D3D0008AD380008AD380008AD3800086B
:103CB000BB3C0008FDF773F8DBE7019CA21C9542B2
:103CC00001923FF422AD94F80380A378B8F1000F7D
:103CD0003CD1F91891F84800053818283FF679AD1D
:103CE00001A151F820F000BF3B380008FB38000864
:103CF0007B3D0008D3370008BB3C0008BB3C0008F4
:103D0000813D0008D3370008D3370008D3370008B7
:103D1000D3370008D33700089D3D0008D33700088B
:103D2000D3370008D3370008BB3C0008753D0008B6
:103D3000D3370008753D0008D3370008D337000893
:103D4000D3370008D3370008573D000819464046CE
:103D5000FDF725F8C0E70D49580911F8081000EBE8
:103D6000C10003F01F0101238B405AF820100B40C3
:103D70003FF412AE0434019491E6AD1A032D5EE5D2
:103D8000019B023333600123C1E400BF6C5601087C
:103D90006C5101086C50010800062000019B9A1C20
:103DA000954201923FF4B1ACD97800297FF411AD6E
:103DB00099783E297FF40DAD043333600323A6E4E4
:103DC0002D1B012D3FF744AE3AE52D1B022DF9E7DF
:103DD0002D1B032DF6E70234A5423FF496AC94F870
:103DE00001802278B8F1000F7FF436AEB91891F84F
:103DF0004800053818283FF62BAE01A151F820F0F5
:103E0000C13D0008CB3D0008D13D0008513A0008F3
:103E1000D73D0008D73D0008653E0008513A00082C
:103E2000513A0008513A0008513A0008513A000846
:103E3000693E0008513A0008513A0008513A00081A
:103E4000D73D0008933A0008513A0008933A000819
:103E5000513A0008513A0008513A0008513A000816
:103E6000753A00080234ABE5A31C9D423FF44DAC0B
:103E7000E278002A7FF41AADA2783E2A7FF416ADCC
:103E800004343460042342E433462A46A11C3846F5
:103E9000FDF77EF9F9E4A31C9D427BD0E078A17880
:103EA00058B9394491F84800A0F10A0250425041F3
:103EB00000B1231D3360072329E4FCF770FFF3E70B
:103EC00002343460F7E7A21C954267D0E378BBB9AF
:103ED000A3785D2B14D1211D8D425FD063797BB90E
:103EE00020793E280CD1316011E42B1B012B7FF788
:103EF000A7ACA21C04E02B1B022B7FF7A1ACE21C99
:103F0000AA421CD05078117890B9394491F84830C1
:103F10000A2B39D8DFE803F0131313132310171EED
:103F2000131313002B1B032B7FF78AAC221DE7E72B
:103F3000FCF735FF0346EBE7AB1A012B24DC3260BC
:103F40000623FFF7E4BBA91A02297FF725ADD11C90
:103F50000A46D5E7AB1A032BF1DD111DF8E7911CDA
:103F6000A942ECD0D378002BF2D193785D2BEFD11E
:103F7000101DA842E3D05379002BE9D112793E2AD3
:103F8000E6D13060FFF7C3BB911CE1E76FF003039C
:103F9000FFF7BDBB6FF00203FFF7B9BB6FF004037F
:103FA000FFF7B5BB914270B506460D4651D00C46A1
:103FB0006078217888B9314491F848000238132894
:103FC00045D8DFE800F01C1444440D1244251F447A
:103FD0004444444444444444443BFCF7E0FEEDE79D
:103FE0000334A242E4D11A602FE00434F9E7A54279
:103FF0002AD1A91C3046BDE87040FDF7C9B80020A1
:104000001C6070BDA5421FD102351D600720F8E776
:10401000A54219D1A51CAA421ED0E078A17850B9BA
:10402000314491F84800A0F10A0250425041002862
:10403000EBD0251DE9E7FCF7B2FEF4E7A54203D17A
:1040400002351D602720DCE71C600620D9E702341A
:10405000C7E76FF00300D4E76FF00200D1E79142A9
:1040600070B506460D4650D00C466078217860B990
:10407000314491F84800072827D009DC052802D0F0
:104080001EDC032823D002341BE0FCF788FEF2E795
:104090000A282ED01E2822D00928F4D1A54231D1D9
:1040A000A51CAA4234D0E078A17840BB314491F8F5
:1040B0004800A0F10A0250425041E8B1251D1BE022
:1040C0000334A242D1D11A601DE00434F9E7A542BD
:1040D00018D1A91C3046BDE87040FDF759B8A5427B
:1040E00010D1A91C3046FDF74FF9162808BF002053
:1040F00070BDA54206D102351D600720F8E7FCF728
:104100004EFED6E71C600620F2E76FF00300EFE7F3
:104110006FF00200ECE738B505468C1C944202D1E2
:104120004FF0FF303DE02078617868B9294491F87C
:104130004800062828D00ADC002803DB01282EDDF1
:1041400005281BD0A11C23E0FCF729FEF1E7082875
:1041500025D01FDB1B28F5D1A11C8A42E0D0A07816
:10416000B0B9E0782D2813D1211D8A42D8D0227908
:1041700012B962793E2A15D0196011E0111B01298C
:10418000E0DC6FF001000CE0111B0229F9DDE11CFD
:104190000C46C3E7111B0329F3DD211DF8E71C6062
:1041A000002038BD06341C600D20FAE703460B20C2
:1041B000C91A0629106006D1197821B958785828EB
:1041C00003D0782802D00120704701219878002878
:1041D000F9D1D8784D280ED06D28F4D1187900285F
:1041E000F1D15B794C2BEFD06C2BECD10029EBD1CA
:1041F0000C231360E7E70121F0E7000091422DE96D
:10420000F74F80460F4615461E4604D14FF0FF304B
:1042100003B0BDE8F08F0A784B7862B9C11891F805
:104220004800072850D00BDC052844D0062848D089
:1042300037600020ECE719461046FCF7B0FDF0E7C8
:10424000182803D01D2826D01628F1D14FF0010AD6
:10425000654BDFF89C91BC1CAC42D7D094F800B001
:104260006278BBF1000F32D108EB020191F84800EF
:104270000538182800F2B580DFE800F03F4447B366
:104280004A4AB3B3B3B3A1B3B3B3B3B34A3DB33D37
:104290003D3D3DB32E0055498A5C590901EBC201F1
:1042A000012203F01F0302FA03F34F4A52F82120C0
:1042B0001342CBD1BCE7ED1B012DB9DC6FF001003F
:1042C000A6E7ED1B022DF8E7ED1B032DF5E71146E0
:1042D0005846FCF764FDCBE719F80B00510901EBD8
:1042E000C00102F01F0253F821000AFA02F2104046
:1042F00001D134608CE70234AEE72D1B012DDDDDEA
:10430000346096E72D1B022DF9E72D1B032DF6E7F0
:1043100001AA21463846FFF749FF0028E9D00234B8
:10432000AC423FF473AF2078617838BB414491F8D8
:1043300048000F2828D801A353F820F001430008B3
:1043400001430008894300088943000889430008A5
:10435000834300088D430008994300080143000887
:1043600089430008894300088943000889430008FD
:104370008943000889430008A3430008FCF70FFDA8
:10438000D7E72B1B012B99DDA31C03E02B1B022B72
:1043900094DDE31C1C46C3E72B1B032B8EDD231D82
:1043A000F8E7A31C9D423FF431AFA278002AF1D177
:1043B000E2783E2AEED104343460019828E701AA5D
:1043C00021463846FFF7F2FE002892D0A31C9D42FA
:1043D0003FF41CAFA27812B9E2783E2AEBD03360EA
:1043E00027E72346FBE700BF6C5101086C56010824
:1043F0006C50010891422DE9F74F07460C461546CF
:104400001E4600F04784531AD90709D533F0010539
:1044100005D14FF0FF33184603B0BDE8F08F2544B7
:104420002078617890B9394491F848300A2B00F22D
:10443000E483DFE813F0910191010F00AD03CC0399
:10444000DE03E403FB039101B403C903FCF7A7FCFB
:104450000346EBE7A21CAA42DBD094F8029094F842
:104460000380B9F1000F21D107EB080191F8480052
:104470000538182831D8DFE810F06400C4000403C0
:104480003000300030003000300030003000A70035
:104490006A00AE00300030003000300032003000E2
:1044A000320030003000300030001E0041464846E7
:1044B000FCF775FCDCE7AD494FEA581011F809101C
:1044C000DFF8B0C200EBC100012108F01F085CF862
:1044D000200001FA08F1014001D132604FE04FF0B5
:1044E000010ADFF89082DFF890920434A54290D060
:1044F00094F800B06278BBF1000F40F01B81B9184E
:1045000091F848000538182800F22681DFE810F0FD
:10451000DC02E102E4022401E702E7022E032401A7
:104520002401240124012401300324012401240155
:10453000E702260124012601260126012601240185
:104540001701AD1A012DC8DC6FF0010363E7231DCD
:104550009D423FF45EAF2079617990B9394491F87A
:104560004800142817D01B2824D1A11D8D423FF4E8
:1045700050AFA37913B9E3792D2B05D03160002317
:1045800049E7FCF70CFCECE733462A463846FFF7D0
:10459000C2FD03463FE706342D1B0B2D7FF739AFD5
:1045A00023460022724914F8120018B95D78505C55
:1045B000854201D03360E2E70132062A03F10203AB
:1045C000F1D13360082326E733462A46211D3846B9
:1045D000FFF714FEDDE7221D95423FF41AAF94F871
:1045E00004806379B8F1000F0ED1F91891F84800F2
:1045F000072800F046820CDC0528A2D006287FF4AC
:104600006CAFAD1A022D9EE719464046FCF7C7FB7A
:10461000EEE7182804D01D2833D016287FF45DAFAC
:104620004FF00109534ADFF850810634A5423FF4A8
:10463000F0AE94F800A06378BAF1000F32D1F91807
:1046400091F848000538182800F28680DFE810F05D
:104650003C02410244028400430043006E00840097
:10466000840084008400840084008400840084002A
:1046700043003E0084003E003E003E003E008400B9
:104680002F003A49580911F8081000EBC10003F057
:104690001F0101238B40374951F820100B40BFD137
:1046A0003260B8E619465046FCF779FBCAE718F8BD
:1046B0000A00590901EBC00103F01F0352F8211051
:1046C00009FA03F30B4001D13460A4E60234ADE7EC
:1046D000FCF765FB0AE00234A5423FF49AAE20786D
:1046E00061780028F4D1394491F8480009380C2841
:1046F00032D801A353F820F0D7460008D746000867
:104700002D47000859470008594700085947000835
:1047100059470008594700085947000859470008F9
:104720005947000859470008D7460008023434604A
:10473000052370E611465846FCF731FBE2E619F80E
:104740000B00510901EBC00102F01F0258F82110C3
:104750000AFA02F20A4001D1346010E70234C5E6D9
:1047600011464046FCF71BFBC7E100BF6C56010831
:10477000C04801086C5101086C500108C54B510933
:1047800013F8083002F01F0201EBC301012393402C
:10479000C14A52F82120134096D00234DFF800932A
:1047A000DFF8F4A20194019A95423FF432AE1478F6
:1047B0005378DCBBF91891F84800053818283FF603
:1047C0008CAE01A151F820F04345000803460008D3
:1047D000834A0008DB4400083748000837480008CF
:1047E000DB440008DB440008DB4400088F48000875
:1047F000DB440008DB440008DB440008DB4400081D
:10480000DB440008DB440008374800088348000800
:10481000DB440008834800088348000883480008F8
:1048200083480008DB440008674800081946204612
:10483000FCF7B5FAC1E7012201998B1C9D42019357
:104840003FF4E7AD8878C978F0B9394491F8480069
:104850000E281CD015283FF6ADAE02FA00F010EA83
:10486000090FE9D1A6E68D495809095D00EBC100A1
:1048700003F01F0101238B405AF820100B403FF436
:104880000FAF023201928EE7FCF789FAE0E74FF0B2
:104890000108019B9A1C954201923FF4BAAD9878A9
:1048A000D97878B9394491F84840A4F10C0101292C
:1048B0000CD9152C3FF611AE08FA04F414EA090FCE
:1048C000E7D10AE6FCF76BFA0446EEE704330DF194
:1048D000080848F8043DDDF804B05D453FF499ADA3
:1048E0009BF800009BF8011068B9394491F8480022
:1048F000844234D008280ED8DFE800F02E2E2E2176
:104900000D0810192E00FCF74AFAF1E7A5EB0B038E
:10491000012B7FF719AE0BF1020306E0A5EB0B03A9
:10492000022B7FF711AE0BF103030193D3E7A5EB45
:104930000B03032B7FF708AE0BF10403F5E74346A7
:104940002A460BF102013846FDF7D6F8031EC2DCF9
:104950007FF461AD019AA3E6C6F800B00FE60BF153
:1049600002039D4201933FF454AD9BF802009BF873
:10497000031018BB394491F8480009380C283FF659
:1049800019AE01A252F820F0C3490008C34900083B
:10499000894A0008B5450008B5450008B545000836
:1049A000B5450008B5450008A54A0008B54500080A
:1049B000B5450008B5450008C3490008FCF7EFF904
:1049C000DBE7019CA21C954201923FF422AD94F8D2
:1049D0000280E378B8F1000F3CD1F91891F8480053
:1049E000053818283FF679AD01A151F820F000BF35
:1049F0004345000803460008834A0008DB440008DA
:104A0000C3490008C3490008894A0008DB4400087C
:104A1000DB440008DB440008DB440008DB440008FA
:104A2000A54A0008DB440008DB440008DB4400081A
:104A3000C34900087D4A0008DB4400087D4A00089D
:104A4000DB440008DB440008DB440008DB440008CA
:104A50005F4A000819464046FCF7A1F9C0E70D4936
:104A6000580911F8081000EBC10003F01F010123E1
:104A70008B405AF820100B403FF412AE04340194DE
:104A800091E6AD1A032D5EE5019B023333600123ED
:104A9000C1E400BF6C5601086C5101086C5001085C
:104AA00000062000019B9A1C954201923FF4B1AC94
:104AB000997800297FF411ADD9783E297FF40DADA6
:104AC000043333600323A6E42D1B012D3FF744AECE
:104AD0003AE52D1B022DF9E72D1B032DF6E70234D5
:104AE000A5423FF496AC94F800806278B8F1000FCC
:104AF0007FF436AEB91891F84800053818283FF60B
:104B00002BAE01A151F820F0C94A0008D34A000891
:104B1000D94A000859470008DF4A0008DF4A000860
:104B20006D4B0008594700085947000859470008CD
:104B30005947000859470008714B000859470008B9
:104B40005947000859470008DF4A00089B470008FA
:104B5000594700089B470008594700085947000873
:104B600059470008594700087D4700080234ABE563
:104B7000A31C9D423FF44DACA278002A7FF41AADED
:104B8000E2783E2A7FF416AD04343460042342E414
:104B900033462A46A11C3846FCF7AEFFF9E4A31CB5
:104BA0009D427BD0A078E17858B9394491F848000B
:104BB000A0F10A025042504100B1231D3360072387
:104BC00029E4FCF7ECF8F3E702343460F7E7A21CC1
:104BD000954267D0A378BBB9E3785D2B14D1211D32
:104BE0008D425FD023797BB960793E280CD131604A
:104BF00011E42B1B012B7FF7A7ACA21C04E02B1B9D
:104C0000022B7FF7A1ACE21CAA421CD0107851788D
:104C100090B9394491F848300A2B39D8DFE803F0CD
:104C2000131313132310171E131313002B1B032B23
:104C30007FF78AAC221DE7E7FCF7B1F80346EBE704
:104C4000AB1A012B24DC32600623FFF7E4BBA91A60
:104C500002297FF725ADD11C0A46D5E7AB1A032BF5
:104C6000F1DD111DF8E7911CA942ECD09378002BDF
:104C7000F2D1D3785D2BEFD1101DA842E3D0137988
:104C8000002BE9D152793E2AE6D13060FFF7C3BB51
:104C9000911CE1E76FF00303FFF7BDBB6FF0020368
:104CA000FFF7B9BB6FF00403FFF7B5BB914270B5D6
:104CB00006460D4651D00C462078617888B93144BB
:104CC00091F848000238132845D8DFE800F01C149A
:104CD00044440D1244251F44444444444444444441
:104CE000443BFCF75CF8EDE70334A242E4D11A60E0
:104CF0002FE00434F9E7A5422AD1A91C3046BDE8CB
:104D00007040FCF7F9BE00201C6070BDA5421FD1A9
:104D100002351D600720F8E7A54219D1A51CAA425B
:104D20001ED0A078E17850B9314491F84800A0F144
:104D30000A02504250410028EBD0251DE9E7FCF75C
:104D40002EF8F4E7A54203D102351D602720DCE7E9
:104D50001C600620D9E70234C7E76FF00300D4E7F0
:104D60006FF00200D1E7914270B506460D4650D073
:104D70000C462078617860B9314491F848000728E2
:104D800027D009DC052802D01EDC032823D00234FA
:104D90001BE0FCF704F8F2E70A282ED01E2822D0E8
:104DA0000928F4D1A54231D1A51CAA4234D0A0785B
:104DB000E17840BB314491F84800A0F10A0250422A
:104DC0005041E8B1251D1BE00334A242D1D11A6045
:104DD0001DE00434F9E7A54218D1A91C3046BDE80E
:104DE0007040FCF789BEA54210D1A91C3046FCF7E3
:104DF0007FFF162808BF002070BDA54206D10235EE
:104E00001D600720F8E7FBF7CAFFD6E71C60062005
:104E1000F2E76FF00300EFE76FF00200ECE72DE937
:104E2000F047914205460C4617469946DDF820A00A
:104E3000DDF8288004D10023C9F80030012674E091
:104E4000FDF7A2FAFDF7B6FA064610B9C8F8004019
:104E50006BE02B6C3A461C4421462846FDF794FA39
:104E6000FDF7A8FA06460028F3D1A742E3D0C9F817
:104E700000403A4621462846FDF786FA421CE5D016
:104E80003D2839D1CAF80040D9F80030A342DDD01E
:104E90002B6C3A461C4421462846FDF775FA81469C
:104EA000FDF788FA06460028F2D1B9F1220F02D0A8
:104EB000B9F1270FCAD12B6C5FFA89F91C44099B01
:104EC0001C603A4621462846FDF75EFA48452FD039
:104ED00020F02003413B192B09D9A0F13003092B05
:104EE00005D9A0F12D03012B01D95F28AED12B6C80
:104EF0001C44E6E71C46BCE7FDF75CFA2B6C234438
:104F00000028F7D0CAF800402B6C3A461C442146D2
:104F10002846FDF739FA0246FDF74CFA0028F3D18E
:104F20003D2AB1D00646C8F800403046BDE8F087BB
:104F30002B6C1C44C8F8004080E7000070B50546A3
:104F40000024074E56F824102846FDF7FDF920B935
:104F50000134062CF6D14FF0FF34204670BD00BF5F
:104F6000F44B0108F0B50C4611461A469142059BD8
:104F70007FD04D1CAA42866C1AD1012C15D190F815
:104F80004570FD1E022D10D90D78EF2D0BD008D8DD
:104F90005DB13C2D09D090F84550374850F82500B8
:104FA00043E0FE2DF7D3002FF5D04FF0FF3033E074
:104FB0004EF6BB7E0D8891F800C06DBAADB2754556
:104FC0004F7839D00DD8B5F5705F26D0BCF1000F01
:104FD00045D1012C03D190F84550052DDBD0274851
:104FE00023E04FF6FF6E75450CD04FF6FE7E7545FB
:104FF000ECD190F845500DB9012CCCD0023119609C
:105000001F4B07E090F845500DB9012CC3D0023179
:1050100019601A4B0E203360F0BD90F84550033DE7
:10502000012D01D8012CB6D0154850F8244030602D
:10503000A446BDE8F0406047012C06D190F84550E9
:10504000002DA8D0033D022DA5D98D1CAA42ACD0BD
:105050008D78BF2D9FD1033119600A4BDAE7002FFD
:1050600099D1012C97D006483060BDE8F04000F09F
:10507000BBBD6FF00300CFE70C4C0108884A010864
:10508000004F01086C57010807B5009313460A4604
:105090000121FFF767FF03B05DF804FB07B500933C
:1050A00013460A460021FFF75DFF03B05DF804FBDD
:1050B00091422DE9F34106460C4617461D4600F085
:1050C00086820B78034493F84830023B222B00F28F
:1050D0006A82DFE813F048006802D400D901F301C6
:1050E00006026802BA002300460138004200680246
:1050F00068026802680268024A01D00023001902AF
:10510000680219021B021B021B0268026802C4002B
:10511000E800EC0068026802CC0042010134A742BA
:10512000224600F09A8013780134334493F84830D3
:105130000A2BF4D0152BF2D0092B01D1A742EED1C6
:105140002A600F2006E04A1C3B4601460C200095D1
:10515000FBF724FB02B0BDE8F0814A1C0095014634
:105160003B460D20F4E74A1C974239D04B78034464
:1051700093F848101D2936D801238B409E490B42D5
:1051800060D1180455D4D9032DD5A21CBA4227D01A
:10519000A378334493F84830143B072B23D8DFE837
:1051A00003F01522192219222204E11C8F4217D084
:1051B000E3782D2B02D029600020CBE72B463A461E
:1051C000304602B0BDE8F041FDF79DBA03342C60D3
:1051D0002120BFE74FF0010C0334BC42224604D12A
:1051E0004FF0FF30B6E72A60E6E71178013431442A
:1051F00091F848301E2BF6D80CFA03F313F0A07F79
:10520000EBD17E48184011D15B00ECD5531C9F4276
:10521000E6D051780E4496F848301E2B06D87849CF
:105220000CFA03F3194009B12A6093E72A601020B1
:1052300090E72B463A463046A11C02B0BDE8F0414B
:10524000FDF7DABA2C601D2084E74B1C9F427FF4E7
:1052500065AF2F606FF00E007CE72F6071E72B4683
:105260003A46013102B0BDE8F041FBF7EBB9013439
:105270002C6026206EE701342C6019206AE74B1C55
:105280009F4200F0A7814A785D2A09D18A1C974283
:10529000A6D08A783E2A03D103342C60222059E715
:1052A0002B601A2056E701342C60172052E74A1C65
:1052B000974200F092814B781E4496F84830093BA3
:1052C0001B2B90D801A151F823F000BF55530008C3
:1052D0005553000855530008E7510008E7510008EE
:1052E000E751000845530008E7510008E75100085E
:1052F000E7510008E7510008E7510008555300083E
:10530000E7510008E7510008E7510008E75100089D
:10531000E7510008E7510008E7510008E75100088D
:10532000E7510008E7510008555300083D530008B5
:105330004D530008555300085553000802342C60A3
:10534000242007E702342C60232003E702342C607A
:105350002520FFE62A601820FCE601342C60152089
:10536000F8E601342C601120F4E601F10108B8459B
:105370003FF436AF4B78034493F84830072B2BD0DB
:1053800006D8052B0CD0062B1AD0C5F8008013E7E1
:10539000182B03D01D2BF8D0162BF6D1023426E0A3
:1053A000A7EB0803012B02DC6FF00100D2E6D0F876
:1053B000543141469847002856D1C5F80080C9E6C7
:1053C000A7EB0803022BEFDDD0F858314146984790
:1053D0000028F2D004340AE0A7EB0803032BE3DD36
:1053E000D0F85C31414698470028E6D00534A74202
:1053F00008D16FF01300ADE6E00040210006200068
:10540000000620402378334493F84830053B1F2B97
:1054100000F2C980DFE803F0121E2AC7353535C710
:10542000C7C7C7C7C7C7C7C73510C710101010C731
:10543000C735C735C7C7C7350134D8E73B1B012B74
:10544000B2DDD6F848312146304698470028A5D12C
:105450002C607FE63B1B022BA6DDD6F84C312146A3
:10546000304698470028F3D00334C0E73B1B032B9A
:105470009ADDD6F850312146304698470028A9D108
:10548000E6E72C60142065E67B1A012B8CDDD0F852
:105490005431984718B102344FF0120809E0D6F899
:1054A000483121463046984700287CD002344FF0DE
:1054B0001308BC422CD1C8F100004BE67B1A022B2A
:1054C0007FF772AFD0F85831984708B10334E3E75B
:1054D000D6F84C31214630469847002863D0033433
:1054E000E5E77B1A032B7FF75FAFD0F85C31984775
:1054F00008B10434D0E7D6F85031214630469847F9
:10550000002850D00434D2E70134C5E70134CEE797
:105510002378334493F84830053B1F2B43D8DFE80A
:1055200003F012202E423C3C3C4242424F42424257
:10553000423C3C10421010101042423C423C483F5A
:105540003C3C0134B5E73B1B012B7FF72DAFD6F870
:10555000483121463046984700283FF479AF02345D
:10556000A7E73B1B022B7FF71FAFD6F84C31214634
:105570003046984700283FF46BAF033499E73B1B54
:10558000032B7FF711AFD6F85031214630469847AC
:1055900000283FF45DAF04348BE72C604046D9E52A
:1055A000B8F1130F01D12C6006E601342C602020E5
:1055B000D0E5B8F1130FF6D001342C601F20C9E5F7
:1055C000B8F1130FEFD001342C601E20C2E56FF04C
:1055D0000300BFE56FF01900BCE56FF01700B9E5F7
:1055E00091422DE9F74F06460C4600F0EE82511A23
:1055F000C80704D531F0010200F08D8022442778DD
:1056000065785FBB711991F848000238222800F2D2
:10561000AA80DFE810F03A00A800EF002C02BF02D9
:10562000C202A800BF00C6006B0128003400A80019
:10563000A800A800A800A8006F01EB00C600410266
:10564000A8004102530253025302A8003102E000B5
:1056500007010B01A800A800E700670129463846AA
:10566000FBF79DFBD1E731460C2000931346A21CAB
:10567000FCF7F0FB0546284603B0BDE8F08F009329
:10568000314613460D20A21CF2E7A51CAA4242D0C7
:10569000A078E17800BB314491F848001D283DD83E
:1056A000012101FA00F0A949084270D1070467D42A
:1056B000C00333D5251D95422DD02079617970B96D
:1056C000314491F848001438072827D8DFE800F063
:1056D0001B261F261F26260AFBF761FBDEE7FBF7CA
:1056E0005EFBF0E7A11D8A4215D0A07910B9E079E0
:1056F0002D2802D019600025BDE7304603B0BDE873
:10570000F04FFEF708BD06341C602125B3E70125E4
:105710000634A24204D14FF0FF35ACE71D60EAE742
:105720002078617808BB314491F848001E281AD8C7
:1057300005FA00F010F0A07F20D1854908421AD167
:10574000410010D5A11C8A42E5D0A078E17878B953
:10575000314491F848001E280DD8012202FA00F0C9
:105760007C4A02403AB11C60C5E7FBF718FBDDE755
:10577000FBF715FBEFE71C6010257CE70234C8E758
:105780003046211D03B0BDE8F04FFEF737BD1C6069
:105790001D2570E7A11C8A4203D11A606FF00E0527
:1057A00069E70234A24214D02078617870B931449C
:1057B00091F848000A28F4D01528F2D0092802D11F
:1057C000A11C8A42EDD11C600F2554E7FBF7E7FAD4
:1057D000F0E71A60F8E73046A11C03B0BDE8F04FCF
:1057E000FCF786BA02341C60262544E702341C60AC
:1057F000192540E7A11C8A4200F0EA81A07870B91F
:10580000E0785D280BD1201D824284D0227932B904
:1058100062793E2A03D106341C6022252BE71960E9
:105820001A2528E702341C60172524E7A51CAA4284
:1058300000F0D181A078E178002841D1314491F87D
:10584000480009381B283FF669AF01A252F820F042
:10585000DF580008DF580008DF5800081D5700080F
:105860001D5700081D570008CF5800081D57000895
:105870001D5700081D5700081D5700081D57000838
:10588000DF5800081D5700081D5700081D57000865
:105890001D5700081D5700081D5700081D57000818
:1058A0001D5700081D5700081D570008DF58000845
:1058B000C7580008D7580008DF580008DF5800080C
:1058C000FBF76DFABDE704341C602425D3E60434ED
:1058D0001C602325CFE604341C602525CBE61D6023
:1058E0001825C8E602341C601525C4E602341C6085
:1058F0001125C0E6A71C97423FF40DAF94F8028033
:10590000E578B8F1000F0BD1711991F8480007281C
:1059100040D00ADC052834D0062838D01F60EAE6DB
:1059200029464046FBF73BFAF1E7182803D01D282B
:1059300016D01628F2D14FF00109074FDFF81C806E
:105940000434A24229D16FF0130594E6E00040210F
:1059500000062000000620406C5101086C50010830
:105960009E49680911F8081000EBC10005F01F01FD
:1059700001258D409A4951F820100D40DBD11F6060
:1059800079E6D21B012AC9DC6FF0010573E6D21B50
:10599000022AF8E7D21B032AF5E794F800A06578FD
:1059A000BAF1000F4AD1711991F8480005381F2843
:1059B0003FF6D9AE01A151F820F000BF6F5A0008A0
:1059C000955B00089B5B000867570008695A000850
:1059D000695A0008695A00086757000867570008A5
:1059E000675700086757000867570008675700089F
:1059F000675700086757000867570008695A00088A
:105A0000655A000867570008655A0008655A00087B
:105A1000655A0008655A000867570008475A000889
:105A2000695A000867570008695A00086757000854
:105A30006757000867570008695A0008294650460A
:105A4000FBF7ADF9B2E718F80A00690901EBC001EC
:105A500005F01F0557F8211009FA05F50D4001D191
:105A60001C6008E602346CE71C60142503E6121B78
:105A7000012A3FF778AE87E70120690905F01F0585
:105A800000FA05F55548DFF858C1C05D01EBC000CC
:105A90005CF82000054208D012250234DFF840816E
:105AA000DFF840914FF0010A70E04E48C05D01EB15
:105AB000C0015CF821100D423FF455AE02341325AD
:105AC000ECE794F800B06778BBF1000F4AD1F11908
:105AD00091F8480005381F283FF645AE01A151F85E
